{"contracts/MyShop.sol":{"MyShop":{"abi":[{"inputs":[],"name":"MyShop__NotEnoughBalance","type":"error"},{"inputs":[],"name":"MyShop__NotEnoughInventory","type":"error"},{"inputs":[],"name":"MyShop__SentOwnerFailed","type":"error"},{"inputs":[],"name":"MyShop__WrongPaymentAmount","type":"error"},{"anonymous":false,"inputs":[{"indexed":true,"internalType":"uint256","name":"productId","type":"uint256"},{"indexed":false,"internalType":"uint256","name":"quantity","type":"uint256"},{"indexed":false,"internalType":"uint256","name":"price","type":"uint256"},{"indexed":true,"internalType":"string","name":"vendor","type":"string"}],"name":"BoughtInventory","type":"event"},{"anonymous":false,"inputs":[{"indexed":true,"internalType":"address","name":"owner","type":"address"}],"name":"ClosedOutExpenses","type":"event"},{"anonymous":false,"inputs":[{"indexed":true,"internalType":"uint256","name":"expenseId","type":"uint256"},{"indexed":false,"internalType":"string","name":"name","type":"string"}],"name":"CreatedExpense","type":"event"},{"anonymous":false,"inputs":[{"indexed":true,"internalType":"uint256","name":"productId","type":"uint256"},{"indexed":false,"internalType":"string","name":"name","type":"string"}],"name":"CreatedProduct","type":"event"},{"anonymous":false,"inputs":[{"indexed":true,"internalType":"address","name":"owner","type":"address"},{"indexed":false,"internalType":"uint256","name":"amount","type":"uint256"}],"name":"OwnerWithdrew","type":"event"},{"anonymous":false,"inputs":[{"indexed":true,"internalType":"address","name":"previousOwner","type":"address"},{"indexed":true,"internalType":"address","name":"newOwner","type":"address"}],"name":"OwnershipTransferred","type":"event"},{"anonymous":false,"inputs":[{"indexed":false,"internalType":"address","name":"account","type":"address"}],"name":"Paused","type":"event"},{"anonymous":false,"inputs":[{"indexed":true,"internalType":"uint256","name":"expenseId","type":"uint256"},{"indexed":false,"internalType":"uint256","name":"amount","type":"uint256"}],"name":"PostedExpense","type":"event"},{"anonymous":false,"inputs":[{"indexed":true,"internalType":"uint256","name":"productId","type":"uint256"},{"indexed":false,"internalType":"uint256","name":"quantity","type":"uint256"},{"indexed":false,"internalType":"uint256","name":"price","type":"uint256"},{"indexed":true,"internalType":"address","name":"customer","type":"address"}],"name":"SoldInventory","type":"event"},{"anonymous":false,"inputs":[{"indexed":false,"internalType":"address","name":"account","type":"address"}],"name":"Unpaused","type":"event"},{"inputs":[{"internalType":"uint256","name":"productId","type":"uint256"},{"internalType":"uint256","name":"quantity","type":"uint256"},{"internalType":"uint256","name":"price","type":"uint256"},{"internalType":"string","name":"vendor","type":"string"}],"name":"buyInventroy","outputs":[],"stateMutability":"nonpayable","type":"function"},{"inputs":[],"name":"closeOutExpenses","outputs":[],"stateMutability":"nonpayable","type":"function"},{"inputs":[{"internalType":"string","name":"_name","type":"string"}],"name":"createExpense","outputs":[],"stateMutability":"nonpayable","type":"function"},{"inputs":[{"internalType":"string","name":"_name","type":"string"}],"name":"createProduct","outputs":[],"stateMutability":"nonpayable","type":"function"},{"inputs":[],"name":"getBalance","outputs":[{"internalType":"uint256","name":"","type":"uint256"}],"stateMutability":"view","type":"function"},{"inputs":[{"internalType":"uint256","name":"expenseId","type":"uint256"}],"name":"getExpenseCost","outputs":[{"internalType":"uint256","name":"","type":"uint256"}],"stateMutability":"view","type":"function"},{"inputs":[{"internalType":"uint256","name":"expenseId","type":"uint256"}],"name":"getExpenseName","outputs":[{"internalType":"string","name":"","type":"string"}],"stateMutability":"view","type":"function"},{"inputs":[{"internalType":"uint256","name":"productId","type":"uint256"}],"name":"getInventoryCost","outputs":[{"internalType":"uint256","name":"","type":"uint256"}],"stateMutability":"view","type":"function"},{"inputs":[{"internalType":"uint256","name":"productId","type":"uint256"}],"name":"getInventoryQTY","outputs":[{"internalType":"uint256","name":"","type":"uint256"}],"stateMutability":"view","type":"function"},{"inputs":[{"internalType":"uint256","name":"productId","type":"uint256"}],"name":"getProductName","outputs":[{"internalType":"string","name":"","type":"string"}],"stateMutability":"view","type":"function"},{"inputs":[],"name":"owner","outputs":[{"internalType":"address","name":"","type":"address"}],"stateMutability":"view","type":"function"},{"inputs":[{"internalType":"uint256","name":"withdrawAmount","type":"uint256"}],"name":"ownerWithdraw","outputs":[],"stateMutability":"nonpayable","type":"function"},{"inputs":[],"name":"pause","outputs":[],"stateMutability":"nonpayable","type":"function"},{"inputs":[],"name":"paused","outputs":[{"internalType":"bool","name":"","type":"bool"}],"stateMutability":"view","type":"function"},{"inputs":[{"internalType":"uint256","name":"expenseId","type":"uint256"},{"internalType":"uint256","name":"amount","type":"uint256"}],"name":"postExpense","outputs":[],"stateMutability":"nonpayable","type":"function"},{"inputs":[],"name":"renounceOwnership","outputs":[],"stateMutability":"nonpayable","type":"function"},{"inputs":[{"internalType":"uint256","name":"productId","type":"uint256"},{"internalType":"uint256","name":"quantity","type":"uint256"},{"internalType":"uint256","name":"price","type":"uint256"}],"name":"sellInventory","outputs":[],"stateMutability":"payable","type":"function"},{"inputs":[{"internalType":"address","name":"newOwner","type":"address"}],"name":"transferOwnership","outputs":[],"stateMutability":"nonpayable","type":"function"},{"inputs":[],"name":"unpause","outputs":[],"stateMutability":"nonpayable","type":"function"}],"evm":{"bytecode":{"linkReferences":{},"object":"608060405234801561001057600080fd5b5061002d61002261005460201b60201c565b61005c60201b60201c565b600180819055506000600260006101000a81548160ff021916908315150217905550610120565b600033905090565b60008060009054906101000a900473ffffffffffffffffffffffffffffffffffffffff169050816000806101000a81548173ffffffffffffffffffffffffffffffffffffffff021916908373ffffffffffffffffffffffffffffffffffffffff1602179055508173ffffffffffffffffffffffffffffffffffffffff168173ffffffffffffffffffffffffffffffffffffffff167f8be0079c531659141344cd1fd0a4f28419497f9722a3daafe3b4186f6b6457e060405160405180910390a35050565b611c008061012f6000396000f3fe6080604052600436106101145760003560e01c8063715018a6116100a05780638da5cb5b116100645780638da5cb5b146103425780639e62e7951461036d578063bf4556d0146103aa578063c9acaa74146103d3578063f2fde38b1461041057610114565b8063715018a614610297578063734e7dba146102ae5780638456cb59146102c55780638a66f933146102dc5780638d28a0bb1461031957610114565b80632b8936cd116100e75780632b8936cd146101e75780632e58cb9f1461020357806333f707d11461022c5780633f4ba83a146102555780635c975abb1461026c57610114565b806302ec06be1461011957806304a8b4951461014257806312065fe01461017f57806324c4de15146101aa575b600080fd5b34801561012557600080fd5b50610140600480360381019061013b9190611047565b610439565b005b34801561014e57600080fd5b50610169600480360381019061016491906110ca565b6104ec565b6040516101769190611187565b60405180910390f35b34801561018b57600080fd5b50610194610594565b6040516101a191906111b8565b60405180910390f35b3480156101b657600080fd5b506101d160048036038101906101cc91906110ca565b61059c565b6040516101de91906111b8565b60405180910390f35b61020160048036038101906101fc91906111d3565b6105bc565b005b34801561020f57600080fd5b5061022a60048036038101906102259190611226565b610722565b005b34801561023857600080fd5b50610253600480360381019061024e91906110ca565b610793565b005b34801561026157600080fd5b5061026a6108ee565b005b34801561027857600080fd5b50610281610900565b60405161028e9190611281565b60405180910390f35b3480156102a357600080fd5b506102ac610917565b005b3480156102ba57600080fd5b506102c361092b565b005b3480156102d157600080fd5b506102da6109be565b005b3480156102e857600080fd5b5061030360048036038101906102fe91906110ca565b6109d0565b60405161031091906111b8565b60405180910390f35b34801561032557600080fd5b50610340600480360381019061033b9190611047565b6109f0565b005b34801561034e57600080fd5b50610357610aa3565b60405161036491906112dd565b60405180910390f35b34801561037957600080fd5b50610394600480360381019061038f91906110ca565b610acc565b6040516103a19190611187565b60405180910390f35b3480156103b657600080fd5b506103d160048036038101906103cc91906112f8565b610b74565b005b3480156103df57600080fd5b506103fa60048036038101906103f591906110ca565b610c3a565b60405161040791906111b8565b60405180910390f35b34801561041c57600080fd5b50610437600480360381019061043291906113ac565b610c5a565b005b610441610cdd565b8181600560006003548152602001908152602001600020600001918261046892919061161f565b50600760035490806001815401808255809150506001900390600052602060002001600090919091909150556003547ff284a6bd3f68ad38e64a5e997292a481a2efadafa97d5a88ef6cd369dcc0db5883836040516104c892919061172b565b60405180910390a2600360008154809291906104e39061177e565b91905055505050565b606060066000838152602001908152602001600020600001805461050f90611442565b80601f016020809104026020016040519081016040528092919081815260200182805461053b90611442565b80156105885780601f1061055d57610100808354040283529160200191610588565b820191906000526020600020905b81548152906001019060200180831161056b57829003601f168201915b50505050509050919050565b600047905090565b600060056000838152602001908152602001600020600101549050919050565b600081836105ca91906117c6565b9050803414610605576040517f58f94bb300000000000000000000000000000000000000000000000000000000815260040160405180910390fd5b60006106108561059c565b90508084111561064c576040517f8001fcf200000000000000000000000000000000000000000000000000000000815260040160405180910390fd5b600061065786610c3a565b90508460056000888152602001908152602001600020600101600082825461067f9190611808565b9250508190555081818661069391906117c6565b61069d919061186b565b6005600088815260200190815260200160002060020160008282546106c29190611808565b925050819055503373ffffffffffffffffffffffffffffffffffffffff16867f9b1a42c3e791e1b83e97b329cda354c5dea23c8bf3e854a38ce6cbaf09001aae878760405161071292919061189c565b60405180910390a3505050505050565b61072a610cdd565b8060066000848152602001908152602001600020600101600082825461075091906118c5565b92505081905550817f392125c32afc16623c67d168d4df70d0a6eff645d7cc4bf43e03da6717af8b7c8260405161078791906111b8565b60405180910390a25050565b61079b610cdd565b6107a3610d5b565b6000479050808211156107e2576040517fd7d0543e00000000000000000000000000000000000000000000000000000000815260040160405180910390fd5b81816107ee9190611808565b905060003373ffffffffffffffffffffffffffffffffffffffff16836040516108169061192a565b60006040518083038185875af1925050503d8060008114610853576040519150601f19603f3d011682016040523d82523d6000602084013e610858565b606091505b5050905080610893576040517f70414f4900000000000000000000000000000000000000000000000000000000815260040160405180910390fd5b3373ffffffffffffffffffffffffffffffffffffffff167f372b455b5163a0c4e2a6cf75f425b94ab0df0d2e195b71985c0b39d3303f91b5846040516108d991906111b8565b60405180910390a250506108eb610daa565b50565b6108f6610cdd565b6108fe610db3565b565b6000600260009054906101000a900460ff16905090565b61091f610cdd565b6109296000610e16565b565b610933610cdd565b6000600880549050905060005b818110156109775760006006600083815260200190815260200160002060010181905550808061096f9061177e565b915050610940565b503373ffffffffffffffffffffffffffffffffffffffff167f938173b520d4f6cec0ff68e5207bde29e0b28470eb595cbb43aa3e4bd699e37660405160405180910390a250565b6109c6610cdd565b6109ce610eda565b565b600060066000838152602001908152602001600020600101549050919050565b6109f8610cdd565b81816006600060045481526020019081526020016000206000019182610a1f92919061161f565b50600860045490806001815401808255809150506001900390600052602060002001600090919091909150556004547f22342ee8723a4ca3fcc23e735bacda3c533587947311340bc5bbd8415fc4a00d8383604051610a7f92919061172b565b60405180910390a260046000815480929190610a9a9061177e565b91905055505050565b60008060009054906101000a900473ffffffffffffffffffffffffffffffffffffffff16905090565b6060600560008381526020019081526020016000206000018054610aef90611442565b80601f0160208091040260200160405190810160405280929190818152602001828054610b1b90611442565b8015610b685780601f10610b3d57610100808354040283529160200191610b68565b820191906000526020600020905b815481529060010190602001808311610b4b57829003601f168201915b50505050509050919050565b610b7c610cdd565b83600560008781526020019081526020016000206001016000828254610ba291906118c5565b925050819055508284610bb591906117c6565b600560008781526020019081526020016000206002016000828254610bda91906118c5565b925050819055508181604051610bf192919061196f565b6040518091039020857f29f5176e28baecdc12a1d430d72ce270baf3516b01719235cc5b30f23683e0348686604051610c2b92919061189c565b60405180910390a35050505050565b600060056000838152602001908152602001600020600201549050919050565b610c62610cdd565b600073ffffffffffffffffffffffffffffffffffffffff168173ffffffffffffffffffffffffffffffffffffffff1603610cd1576040517f08c379a0000000000000000000000000000000000000000000000000000000008152600401610cc8906119fa565b60405180910390fd5b610cda81610e16565b50565b610ce5610f3d565b73ffffffffffffffffffffffffffffffffffffffff16610d03610aa3565b73ffffffffffffffffffffffffffffffffffffffff1614610d59576040517f08c379a0000000000000000000000000000000000000000000000000000000008152600401610d5090611a66565b60405180910390fd5b565b600260015403610da0576040517f08c379a0000000000000000000000000000000000000000000000000000000008152600401610d9790611ad2565b60405180910390fd5b6002600181905550565b60018081905550565b610dbb610f45565b6000600260006101000a81548160ff0219169083151502179055507f5db9ee0a495bf2e6ff9c91a7834c1ba4fdd244a5e8aa4e537bd38aeae4b073aa610dff610f3d565b604051610e0c91906112dd565b60405180910390a1565b60008060009054906101000a900473ffffffffffffffffffffffffffffffffffffffff169050816000806101000a81548173ffffffffffffffffffffffffffffffffffffffff021916908373ffffffffffffffffffffffffffffffffffffffff1602179055508173ffffffffffffffffffffffffffffffffffffffff168173ffffffffffffffffffffffffffffffffffffffff167f8be0079c531659141344cd1fd0a4f28419497f9722a3daafe3b4186f6b6457e060405160405180910390a35050565b610ee2610f8e565b6001600260006101000a81548160ff0219169083151502179055507f62e78cea01bee320cd4e420270b5ea74000d11b0c9f74754ebdbfc544b05a258610f26610f3d565b604051610f3391906112dd565b60405180910390a1565b600033905090565b610f4d610900565b610f8c576040517f08c379a0000000000000000000000000000000000000000000000000000000008152600401610f8390611b3e565b60405180910390fd5b565b610f96610900565b15610fd6576040517f08c379a0000000000000000000000000000000000000000000000000000000008152600401610fcd90611baa565b60405180910390fd5b565b600080fd5b600080fd5b600080fd5b600080fd5b600080fd5b60008083601f84011261100757611006610fe2565b5b8235905067ffffffffffffffff81111561102457611023610fe7565b5b6020830191508360018202830111156110405761103f610fec565b5b9250929050565b6000806020838503121561105e5761105d610fd8565b5b600083013567ffffffffffffffff81111561107c5761107b610fdd565b5b61108885828601610ff1565b92509250509250929050565b6000819050919050565b6110a781611094565b81146110b257600080fd5b50565b6000813590506110c48161109e565b92915050565b6000602082840312156110e0576110df610fd8565b5b60006110ee848285016110b5565b91505092915050565b600081519050919050565b600082825260208201905092915050565b60005b83811015611131578082015181840152602081019050611116565b60008484015250505050565b6000601f19601f8301169050919050565b6000611159826110f7565b6111638185611102565b9350611173818560208601611113565b61117c8161113d565b840191505092915050565b600060208201905081810360008301526111a1818461114e565b905092915050565b6111b281611094565b82525050565b60006020820190506111cd60008301846111a9565b92915050565b6000806000606084860312156111ec576111eb610fd8565b5b60006111fa868287016110b5565b935050602061120b868287016110b5565b925050604061121c868287016110b5565b9150509250925092565b6000806040838503121561123d5761123c610fd8565b5b600061124b858286016110b5565b925050602061125c858286016110b5565b9150509250929050565b60008115159050919050565b61127b81611266565b82525050565b60006020820190506112966000830184611272565b92915050565b600073ffffffffffffffffffffffffffffffffffffffff82169050919050565b60006112c78261129c565b9050919050565b6112d7816112bc565b82525050565b60006020820190506112f260008301846112ce565b92915050565b60008060008060006080868803121561131457611313610fd8565b5b6000611322888289016110b5565b9550506020611333888289016110b5565b9450506040611344888289016110b5565b935050606086013567ffffffffffffffff81111561136557611364610fdd565b5b61137188828901610ff1565b92509250509295509295909350565b611389816112bc565b811461139457600080fd5b50565b6000813590506113a681611380565b92915050565b6000602082840312156113c2576113c1610fd8565b5b60006113d084828501611397565b91505092915050565b600082905092915050565b7f4e487b7100000000000000000000000000000000000000000000000000000000600052604160045260246000fd5b7f4e487b7100000000000000000000000000000000000000000000000000000000600052602260045260246000fd5b6000600282049050600182168061145a57607f821691505b60208210810361146d5761146c611413565b5b50919050565b60008190508160005260206000209050919050565b60006020601f8301049050919050565b600082821b905092915050565b6000600883026114d57fffffffffffffffffffffffffffffffffffffffffffffffffffffffffffffffff82611498565b6114df8683611498565b95508019841693508086168417925050509392505050565b6000819050919050565b600061151c61151761151284611094565b6114f7565b611094565b9050919050565b6000819050919050565b61153683611501565b61154a61154282611523565b8484546114a5565b825550505050565b600090565b61155f611552565b61156a81848461152d565b505050565b5b8181101561158e57611583600082611557565b600181019050611570565b5050565b601f8211156115d3576115a481611473565b6115ad84611488565b810160208510156115bc578190505b6115d06115c885611488565b83018261156f565b50505b505050565b600082821c905092915050565b60006115f6600019846008026115d8565b1980831691505092915050565b600061160f83836115e5565b9150826002028217905092915050565b61162983836113d9565b67ffffffffffffffff811115611642576116416113e4565b5b61164c8254611442565b611657828285611592565b6000601f8311600181146116865760008415611674578287013590505b61167e8582611603565b8655506116e6565b601f19841661169486611473565b60005b828110156116bc57848901358255600182019150602085019450602081019050611697565b868310156116d957848901356116d5601f8916826115e5565b8355505b6001600288020188555050505b50505050505050565b82818337600083830152505050565b600061170a8385611102565b93506117178385846116ef565b6117208361113d565b840190509392505050565b600060208201905081810360008301526117468184866116fe565b90509392505050565b7f4e487b7100000000000000000000000000000000000000000000000000000000600052601160045260246000fd5b600061178982611094565b91507fffffffffffffffffffffffffffffffffffffffffffffffffffffffffffffffff82036117bb576117ba61174f565b5b600182019050919050565b60006117d182611094565b91506117dc83611094565b92508282026117ea81611094565b915082820484148315176118015761180061174f565b5b5092915050565b600061181382611094565b915061181e83611094565b92508282039050818111156118365761183561174f565b5b92915050565b7f4e487b7100000000000000000000000000000000000000000000000000000000600052601260045260246000fd5b600061187682611094565b915061188183611094565b9250826118915761189061183c565b5b828204905092915050565b60006040820190506118b160008301856111a9565b6118be60208301846111a9565b9392505050565b60006118d082611094565b91506118db83611094565b92508282019050808211156118f3576118f261174f565b5b92915050565b600081905092915050565b50565b60006119146000836118f9565b915061191f82611904565b600082019050919050565b600061193582611907565b9150819050919050565b600081905092915050565b6000611956838561193f565b93506119638385846116ef565b82840190509392505050565b600061197c82848661194a565b91508190509392505050565b7f4f776e61626c653a206e6577206f776e657220697320746865207a65726f206160008201527f6464726573730000000000000000000000000000000000000000000000000000602082015250565b60006119e4602683611102565b91506119ef82611988565b604082019050919050565b60006020820190508181036000830152611a13816119d7565b9050919050565b7f4f776e61626c653a2063616c6c6572206973206e6f7420746865206f776e6572600082015250565b6000611a50602083611102565b9150611a5b82611a1a565b602082019050919050565b60006020820190508181036000830152611a7f81611a43565b9050919050565b7f5265656e7472616e637947756172643a207265656e7472616e742063616c6c00600082015250565b6000611abc601f83611102565b9150611ac782611a86565b602082019050919050565b60006020820190508181036000830152611aeb81611aaf565b9050919050565b7f5061757361626c653a206e6f7420706175736564000000000000000000000000600082015250565b6000611b28601483611102565b9150611b3382611af2565b602082019050919050565b60006020820190508181036000830152611b5781611b1b565b9050919050565b7f5061757361626c653a2070617573656400000000000000000000000000000000600082015250565b6000611b94601083611102565b9150611b9f82611b5e565b602082019050919050565b60006020820190508181036000830152611bc381611b87565b905091905056fea26469706673582212209b77544c43efbd61a8a4712249e6f0d2fe03b3b8968414babffc26abc17c76b964736f6c63430008150033","opcodes":"PUSH1 0x80 PUSH1 0x40 MSTORE CALLVALUE DUP1 ISZERO PUSH2 0x10 JUMPI PUSH1 0x0 DUP1 REVERT JUMPDEST POP PUSH2 0x2D PUSH2 0x22 PUSH2 0x54 PUSH1 0x20 SHL PUSH1 0x20 SHR JUMP JUMPDEST PUSH2 0x5C PUSH1 0x20 SHL PUSH1 0x20 SHR JUMP JUMPDEST PUSH1 0x1 DUP1 DUP2 SWAP1 SSTORE POP PUSH1 0x0 PUSH1 0x2 PUSH1 0x0 PUSH2 0x100 EXP DUP2 SLOAD DUP2 PUSH1 0xFF MUL NOT AND SWAP1 DUP4 ISZERO ISZERO MUL OR SWAP1 SSTORE POP PUSH2 0x120 JUMP JUMPDEST PUSH1 0x0 CALLER SWAP1 POP SWAP1 JUMP JUMPDEST PUSH1 0x0 DUP1 PUSH1 0x0 SWAP1 SLOAD SWAP1 PUSH2 0x100 EXP SWAP1 DIV PUSH20 0xFFFFFFFFFFFFFFFFFFFFFFFFFFFFFFFFFFFFFFFF AND SWAP1 POP DUP2 PUSH1 0x0 DUP1 PUSH2 0x100 EXP DUP2 SLOAD DUP2 PUSH20 0xFFFFFFFFFFFFFFFFFFFFFFFFFFFFFFFFFFFFFFFF MUL NOT AND SWAP1 DUP4 PUSH20 0xFFFFFFFFFFFFFFFFFFFFFFFFFFFFFFFFFFFFFFFF AND MUL OR SWAP1 SSTORE POP DUP2 PUSH20 0xFFFFFFFFFFFFFFFFFFFFFFFFFFFFFFFFFFFFFFFF AND DUP2 PUSH20 0xFFFFFFFFFFFFFFFFFFFFFFFFFFFFFFFFFFFFFFFF AND PUSH32 0x8BE0079C531659141344CD1FD0A4F28419497F9722A3DAAFE3B4186F6B6457E0 PUSH1 0x40 MLOAD PUSH1 0x40 MLOAD DUP1 SWAP2 SUB SWAP1 LOG3 POP POP JUMP JUMPDEST PUSH2 0x1C00 DUP1 PUSH2 0x12F PUSH1 0x0 CODECOPY PUSH1 0x0 RETURN INVALID PUSH1 0x80 PUSH1 0x40 MSTORE PUSH1 0x4 CALLDATASIZE LT PUSH2 0x114 JUMPI PUSH1 0x0 CALLDATALOAD PUSH1 0xE0 SHR DUP1 PUSH4 0x715018A6 GT PUSH2 0xA0 JUMPI DUP1 PUSH4 0x8DA5CB5B GT PUSH2 0x64 JUMPI DUP1 PUSH4 0x8DA5CB5B EQ PUSH2 0x342 JUMPI DUP1 PUSH4 0x9E62E795 EQ PUSH2 0x36D JUMPI DUP1 PUSH4 0xBF4556D0 EQ PUSH2 0x3AA JUMPI DUP1 PUSH4 0xC9ACAA74 EQ PUSH2 0x3D3 JUMPI DUP1 PUSH4 0xF2FDE38B EQ PUSH2 0x410 JUMPI PUSH2 0x114 JUMP JUMPDEST DUP1 PUSH4 0x715018A6 EQ PUSH2 0x297 JUMPI DUP1 PUSH4 0x734E7DBA EQ PUSH2 0x2AE JUMPI DUP1 PUSH4 0x8456CB59 EQ PUSH2 0x2C5 JUMPI DUP1 PUSH4 0x8A66F933 EQ PUSH2 0x2DC JUMPI DUP1 PUSH4 0x8D28A0BB EQ PUSH2 0x319 JUMPI PUSH2 0x114 JUMP JUMPDEST DUP1 PUSH4 0x2B8936CD GT PUSH2 0xE7 JUMPI DUP1 PUSH4 0x2B8936CD EQ PUSH2 0x1E7 JUMPI DUP1 PUSH4 0x2E58CB9F EQ PUSH2 0x203 JUMPI DUP1 PUSH4 0x33F707D1 EQ PUSH2 0x22C JUMPI DUP1 PUSH4 0x3F4BA83A EQ PUSH2 0x255 JUMPI DUP1 PUSH4 0x5C975ABB EQ PUSH2 0x26C JUMPI PUSH2 0x114 JUMP JUMPDEST DUP1 PUSH4 0x2EC06BE EQ PUSH2 0x119 JUMPI DUP1 PUSH4 0x4A8B495 EQ PUSH2 0x142 JUMPI DUP1 PUSH4 0x12065FE0 EQ PUSH2 0x17F JUMPI DUP1 PUSH4 0x24C4DE15 EQ PUSH2 0x1AA JUMPI JUMPDEST PUSH1 0x0 DUP1 REVERT JUMPDEST CALLVALUE DUP1 ISZERO PUSH2 0x125 JUMPI PUSH1 0x0 DUP1 REVERT JUMPDEST POP PUSH2 0x140 PUSH1 0x4 DUP1 CALLDATASIZE SUB DUP2 ADD SWAP1 PUSH2 0x13B SWAP2 SWAP1 PUSH2 0x1047 JUMP JUMPDEST PUSH2 0x439 JUMP JUMPDEST STOP JUMPDEST CALLVALUE DUP1 ISZERO PUSH2 0x14E JUMPI PUSH1 0x0 DUP1 REVERT JUMPDEST POP PUSH2 0x169 PUSH1 0x4 DUP1 CALLDATASIZE SUB DUP2 ADD SWAP1 PUSH2 0x164 SWAP2 SWAP1 PUSH2 0x10CA JUMP JUMPDEST PUSH2 0x4EC JUMP JUMPDEST PUSH1 0x40 MLOAD PUSH2 0x176 SWAP2 SWAP1 PUSH2 0x1187 JUMP JUMPDEST PUSH1 0x40 MLOAD DUP1 SWAP2 SUB SWAP1 RETURN JUMPDEST CALLVALUE DUP1 ISZERO PUSH2 0x18B JUMPI PUSH1 0x0 DUP1 REVERT JUMPDEST POP PUSH2 0x194 PUSH2 0x594 JUMP JUMPDEST PUSH1 0x40 MLOAD PUSH2 0x1A1 SWAP2 SWAP1 PUSH2 0x11B8 JUMP JUMPDEST PUSH1 0x40 MLOAD DUP1 SWAP2 SUB SWAP1 RETURN JUMPDEST CALLVALUE DUP1 ISZERO PUSH2 0x1B6 JUMPI PUSH1 0x0 DUP1 REVERT JUMPDEST POP PUSH2 0x1D1 PUSH1 0x4 DUP1 CALLDATASIZE SUB DUP2 ADD SWAP1 PUSH2 0x1CC SWAP2 SWAP1 PUSH2 0x10CA JUMP JUMPDEST PUSH2 0x59C JUMP JUMPDEST PUSH1 0x40 MLOAD PUSH2 0x1DE SWAP2 SWAP1 PUSH2 0x11B8 JUMP JUMPDEST PUSH1 0x40 MLOAD DUP1 SWAP2 SUB SWAP1 RETURN JUMPDEST PUSH2 0x201 PUSH1 0x4 DUP1 CALLDATASIZE SUB DUP2 ADD SWAP1 PUSH2 0x1FC SWAP2 SWAP1 PUSH2 0x11D3 JUMP JUMPDEST PUSH2 0x5BC JUMP JUMPDEST STOP JUMPDEST CALLVALUE DUP1 ISZERO PUSH2 0x20F JUMPI PUSH1 0x0 DUP1 REVERT JUMPDEST POP PUSH2 0x22A PUSH1 0x4 DUP1 CALLDATASIZE SUB DUP2 ADD SWAP1 PUSH2 0x225 SWAP2 SWAP1 PUSH2 0x1226 JUMP JUMPDEST PUSH2 0x722 JUMP JUMPDEST STOP JUMPDEST CALLVALUE DUP1 ISZERO PUSH2 0x238 JUMPI PUSH1 0x0 DUP1 REVERT JUMPDEST POP PUSH2 0x253 PUSH1 0x4 DUP1 CALLDATASIZE SUB DUP2 ADD SWAP1 PUSH2 0x24E SWAP2 SWAP1 PUSH2 0x10CA JUMP JUMPDEST PUSH2 0x793 JUMP JUMPDEST STOP JUMPDEST CALLVALUE DUP1 ISZERO PUSH2 0x261 JUMPI PUSH1 0x0 DUP1 REVERT JUMPDEST POP PUSH2 0x26A PUSH2 0x8EE JUMP JUMPDEST STOP JUMPDEST CALLVALUE DUP1 ISZERO PUSH2 0x278 JUMPI PUSH1 0x0 DUP1 REVERT JUMPDEST POP PUSH2 0x281 PUSH2 0x900 JUMP JUMPDEST PUSH1 0x40 MLOAD PUSH2 0x28E SWAP2 SWAP1 PUSH2 0x1281 JUMP JUMPDEST PUSH1 0x40 MLOAD DUP1 SWAP2 SUB SWAP1 RETURN JUMPDEST CALLVALUE DUP1 ISZERO PUSH2 0x2A3 JUMPI PUSH1 0x0 DUP1 REVERT JUMPDEST POP PUSH2 0x2AC PUSH2 0x917 JUMP JUMPDEST STOP JUMPDEST CALLVALUE DUP1 ISZERO PUSH2 0x2BA JUMPI PUSH1 0x0 DUP1 REVERT JUMPDEST POP PUSH2 0x2C3 PUSH2 0x92B JUMP JUMPDEST STOP JUMPDEST CALLVALUE DUP1 ISZERO PUSH2 0x2D1 JUMPI PUSH1 0x0 DUP1 REVERT JUMPDEST POP PUSH2 0x2DA PUSH2 0x9BE JUMP JUMPDEST STOP JUMPDEST CALLVALUE DUP1 ISZERO PUSH2 0x2E8 JUMPI PUSH1 0x0 DUP1 REVERT JUMPDEST POP PUSH2 0x303 PUSH1 0x4 DUP1 CALLDATASIZE SUB DUP2 ADD SWAP1 PUSH2 0x2FE SWAP2 SWAP1 PUSH2 0x10CA JUMP JUMPDEST PUSH2 0x9D0 JUMP JUMPDEST PUSH1 0x40 MLOAD PUSH2 0x310 SWAP2 SWAP1 PUSH2 0x11B8 JUMP JUMPDEST PUSH1 0x40 MLOAD DUP1 SWAP2 SUB SWAP1 RETURN JUMPDEST CALLVALUE DUP1 ISZERO PUSH2 0x325 JUMPI PUSH1 0x0 DUP1 REVERT JUMPDEST POP PUSH2 0x340 PUSH1 0x4 DUP1 CALLDATASIZE SUB DUP2 ADD SWAP1 PUSH2 0x33B SWAP2 SWAP1 PUSH2 0x1047 JUMP JUMPDEST PUSH2 0x9F0 JUMP JUMPDEST STOP JUMPDEST CALLVALUE DUP1 ISZERO PUSH2 0x34E JUMPI PUSH1 0x0 DUP1 REVERT JUMPDEST POP PUSH2 0x357 PUSH2 0xAA3 JUMP JUMPDEST PUSH1 0x40 MLOAD PUSH2 0x364 SWAP2 SWAP1 PUSH2 0x12DD JUMP JUMPDEST PUSH1 0x40 MLOAD DUP1 SWAP2 SUB SWAP1 RETURN JUMPDEST CALLVALUE DUP1 ISZERO PUSH2 0x379 JUMPI PUSH1 0x0 DUP1 REVERT JUMPDEST POP PUSH2 0x394 PUSH1 0x4 DUP1 CALLDATASIZE SUB DUP2 ADD SWAP1 PUSH2 0x38F SWAP2 SWAP1 PUSH2 0x10CA JUMP JUMPDEST PUSH2 0xACC JUMP JUMPDEST PUSH1 0x40 MLOAD PUSH2 0x3A1 SWAP2 SWAP1 PUSH2 0x1187 JUMP JUMPDEST PUSH1 0x40 MLOAD DUP1 SWAP2 SUB SWAP1 RETURN JUMPDEST CALLVALUE DUP1 ISZERO PUSH2 0x3B6 JUMPI PUSH1 0x0 DUP1 REVERT JUMPDEST POP PUSH2 0x3D1 PUSH1 0x4 DUP1 CALLDATASIZE SUB DUP2 ADD SWAP1 PUSH2 0x3CC SWAP2 SWAP1 PUSH2 0x12F8 JUMP JUMPDEST PUSH2 0xB74 JUMP JUMPDEST STOP JUMPDEST CALLVALUE DUP1 ISZERO PUSH2 0x3DF JUMPI PUSH1 0x0 DUP1 REVERT JUMPDEST POP PUSH2 0x3FA PUSH1 0x4 DUP1 CALLDATASIZE SUB DUP2 ADD SWAP1 PUSH2 0x3F5 SWAP2 SWAP1 PUSH2 0x10CA JUMP JUMPDEST PUSH2 0xC3A JUMP JUMPDEST PUSH1 0x40 MLOAD PUSH2 0x407 SWAP2 SWAP1 PUSH2 0x11B8 JUMP JUMPDEST PUSH1 0x40 MLOAD DUP1 SWAP2 SUB SWAP1 RETURN JUMPDEST CALLVALUE DUP1 ISZERO PUSH2 0x41C JUMPI PUSH1 0x0 DUP1 REVERT JUMPDEST POP PUSH2 0x437 PUSH1 0x4 DUP1 CALLDATASIZE SUB DUP2 ADD SWAP1 PUSH2 0x432 SWAP2 SWAP1 PUSH2 0x13AC JUMP JUMPDEST PUSH2 0xC5A JUMP JUMPDEST STOP JUMPDEST PUSH2 0x441 PUSH2 0xCDD JUMP JUMPDEST DUP2 DUP2 PUSH1 0x5 PUSH1 0x0 PUSH1 0x3 SLOAD DUP2 MSTORE PUSH1 0x20 ADD SWAP1 DUP2 MSTORE PUSH1 0x20 ADD PUSH1 0x0 KECCAK256 PUSH1 0x0 ADD SWAP2 DUP3 PUSH2 0x468 SWAP3 SWAP2 SWAP1 PUSH2 0x161F JUMP JUMPDEST POP PUSH1 0x7 PUSH1 0x3 SLOAD SWAP1 DUP1 PUSH1 0x1 DUP2 SLOAD ADD DUP1 DUP3 SSTORE DUP1 SWAP2 POP POP PUSH1 0x1 SWAP1 SUB SWAP1 PUSH1 0x0 MSTORE PUSH1 0x20 PUSH1 0x0 KECCAK256 ADD PUSH1 0x0 SWAP1 SWAP2 SWAP1 SWAP2 SWAP1 SWAP2 POP SSTORE PUSH1 0x3 SLOAD PUSH32 0xF284A6BD3F68AD38E64A5E997292A481A2EFADAFA97D5A88EF6CD369DCC0DB58 DUP4 DUP4 PUSH1 0x40 MLOAD PUSH2 0x4C8 SWAP3 SWAP2 SWAP1 PUSH2 0x172B JUMP JUMPDEST PUSH1 0x40 MLOAD DUP1 SWAP2 SUB SWAP1 LOG2 PUSH1 0x3 PUSH1 0x0 DUP2 SLOAD DUP1 SWAP3 SWAP2 SWAP1 PUSH2 0x4E3 SWAP1 PUSH2 0x177E JUMP JUMPDEST SWAP2 SWAP1 POP SSTORE POP POP POP JUMP JUMPDEST PUSH1 0x60 PUSH1 0x6 PUSH1 0x0 DUP4 DUP2 MSTORE PUSH1 0x20 ADD SWAP1 DUP2 MSTORE PUSH1 0x20 ADD PUSH1 0x0 KECCAK256 PUSH1 0x0 ADD DUP1 SLOAD PUSH2 0x50F SWAP1 PUSH2 0x1442 JUMP JUMPDEST DUP1 PUSH1 0x1F ADD PUSH1 0x20 DUP1 SWAP2 DIV MUL PUSH1 0x20 ADD PUSH1 0x40 MLOAD SWAP1 DUP2 ADD PUSH1 0x40 MSTORE DUP1 SWAP3 SWAP2 SWAP1 DUP2 DUP2 MSTORE PUSH1 0x20 ADD DUP3 DUP1 SLOAD PUSH2 0x53B SWAP1 PUSH2 0x1442 JUMP JUMPDEST DUP1 ISZERO PUSH2 0x588 JUMPI DUP1 PUSH1 0x1F LT PUSH2 0x55D JUMPI PUSH2 0x100 DUP1 DUP4 SLOAD DIV MUL DUP4 MSTORE SWAP2 PUSH1 0x20 ADD SWAP2 PUSH2 0x588 JUMP JUMPDEST DUP3 ADD SWAP2 SWAP1 PUSH1 0x0 MSTORE PUSH1 0x20 PUSH1 0x0 KECCAK256 SWAP1 JUMPDEST DUP2 SLOAD DUP2 MSTORE SWAP1 PUSH1 0x1 ADD SWAP1 PUSH1 0x20 ADD DUP1 DUP4 GT PUSH2 0x56B JUMPI DUP3 SWAP1 SUB PUSH1 0x1F AND DUP3 ADD SWAP2 JUMPDEST POP POP POP POP POP SWAP1 POP SWAP2 SWAP1 POP JUMP JUMPDEST PUSH1 0x0 SELFBALANCE SWAP1 POP SWAP1 JUMP JUMPDEST PUSH1 0x0 PUSH1 0x5 PUSH1 0x0 DUP4 DUP2 MSTORE PUSH1 0x20 ADD SWAP1 DUP2 MSTORE PUSH1 0x20 ADD PUSH1 0x0 KECCAK256 PUSH1 0x1 ADD SLOAD SWAP1 POP SWAP2 SWAP1 POP JUMP JUMPDEST PUSH1 0x0 DUP2 DUP4 PUSH2 0x5CA SWAP2 SWAP1 PUSH2 0x17C6 JUMP JUMPDEST SWAP1 POP DUP1 CALLVALUE EQ PUSH2 0x605 JUMPI PUSH1 0x40 MLOAD PUSH32 0x58F94BB300000000000000000000000000000000000000000000000000000000 DUP2 MSTORE PUSH1 0x4 ADD PUSH1 0x40 MLOAD DUP1 SWAP2 SUB SWAP1 REVERT JUMPDEST PUSH1 0x0 PUSH2 0x610 DUP6 PUSH2 0x59C JUMP JUMPDEST SWAP1 POP DUP1 DUP5 GT ISZERO PUSH2 0x64C JUMPI PUSH1 0x40 MLOAD PUSH32 0x8001FCF200000000000000000000000000000000000000000000000000000000 DUP2 MSTORE PUSH1 0x4 ADD PUSH1 0x40 MLOAD DUP1 SWAP2 SUB SWAP1 REVERT JUMPDEST PUSH1 0x0 PUSH2 0x657 DUP7 PUSH2 0xC3A JUMP JUMPDEST SWAP1 POP DUP5 PUSH1 0x5 PUSH1 0x0 DUP9 DUP2 MSTORE PUSH1 0x20 ADD SWAP1 DUP2 MSTORE PUSH1 0x20 ADD PUSH1 0x0 KECCAK256 PUSH1 0x1 ADD PUSH1 0x0 DUP3 DUP3 SLOAD PUSH2 0x67F SWAP2 SWAP1 PUSH2 0x1808 JUMP JUMPDEST SWAP3 POP POP DUP2 SWAP1 SSTORE POP DUP2 DUP2 DUP7 PUSH2 0x693 SWAP2 SWAP1 PUSH2 0x17C6 JUMP JUMPDEST PUSH2 0x69D SWAP2 SWAP1 PUSH2 0x186B JUMP JUMPDEST PUSH1 0x5 PUSH1 0x0 DUP9 DUP2 MSTORE PUSH1 0x20 ADD SWAP1 DUP2 MSTORE PUSH1 0x20 ADD PUSH1 0x0 KECCAK256 PUSH1 0x2 ADD PUSH1 0x0 DUP3 DUP3 SLOAD PUSH2 0x6C2 SWAP2 SWAP1 PUSH2 0x1808 JUMP JUMPDEST SWAP3 POP POP DUP2 SWAP1 SSTORE POP CALLER PUSH20 0xFFFFFFFFFFFFFFFFFFFFFFFFFFFFFFFFFFFFFFFF AND DUP7 PUSH32 0x9B1A42C3E791E1B83E97B329CDA354C5DEA23C8BF3E854A38CE6CBAF09001AAE DUP8 DUP8 PUSH1 0x40 MLOAD PUSH2 0x712 SWAP3 SWAP2 SWAP1 PUSH2 0x189C JUMP JUMPDEST PUSH1 0x40 MLOAD DUP1 SWAP2 SUB SWAP1 LOG3 POP POP POP POP POP POP JUMP JUMPDEST PUSH2 0x72A PUSH2 0xCDD JUMP JUMPDEST DUP1 PUSH1 0x6 PUSH1 0x0 DUP5 DUP2 MSTORE PUSH1 0x20 ADD SWAP1 DUP2 MSTORE PUSH1 0x20 ADD PUSH1 0x0 KECCAK256 PUSH1 0x1 ADD PUSH1 0x0 DUP3 DUP3 SLOAD PUSH2 0x750 SWAP2 SWAP1 PUSH2 0x18C5 JUMP JUMPDEST SWAP3 POP POP DUP2 SWAP1 SSTORE POP DUP2 PUSH32 0x392125C32AFC16623C67D168D4DF70D0A6EFF645D7CC4BF43E03DA6717AF8B7C DUP3 PUSH1 0x40 MLOAD PUSH2 0x787 SWAP2 SWAP1 PUSH2 0x11B8 JUMP JUMPDEST PUSH1 0x40 MLOAD DUP1 SWAP2 SUB SWAP1 LOG2 POP POP JUMP JUMPDEST PUSH2 0x79B PUSH2 0xCDD JUMP JUMPDEST PUSH2 0x7A3 PUSH2 0xD5B JUMP JUMPDEST PUSH1 0x0 SELFBALANCE SWAP1 POP DUP1 DUP3 GT ISZERO PUSH2 0x7E2 JUMPI PUSH1 0x40 MLOAD PUSH32 0xD7D0543E00000000000000000000000000000000000000000000000000000000 DUP2 MSTORE PUSH1 0x4 ADD PUSH1 0x40 MLOAD DUP1 SWAP2 SUB SWAP1 REVERT JUMPDEST DUP2 DUP2 PUSH2 0x7EE SWAP2 SWAP1 PUSH2 0x1808 JUMP JUMPDEST SWAP1 POP PUSH1 0x0 CALLER PUSH20 0xFFFFFFFFFFFFFFFFFFFFFFFFFFFFFFFFFFFFFFFF AND DUP4 PUSH1 0x40 MLOAD PUSH2 0x816 SWAP1 PUSH2 0x192A JUMP JUMPDEST PUSH1 0x0 PUSH1 0x40 MLOAD DUP1 DUP4 SUB DUP2 DUP6 DUP8 GAS CALL SWAP3 POP POP POP RETURNDATASIZE DUP1 PUSH1 0x0 DUP2 EQ PUSH2 0x853 JUMPI PUSH1 0x40 MLOAD SWAP2 POP PUSH1 0x1F NOT PUSH1 0x3F RETURNDATASIZE ADD AND DUP3 ADD PUSH1 0x40 MSTORE RETURNDATASIZE DUP3 MSTORE RETURNDATASIZE PUSH1 0x0 PUSH1 0x20 DUP5 ADD RETURNDATACOPY PUSH2 0x858 JUMP JUMPDEST PUSH1 0x60 SWAP2 POP JUMPDEST POP POP SWAP1 POP DUP1 PUSH2 0x893 JUMPI PUSH1 0x40 MLOAD PUSH32 0x70414F4900000000000000000000000000000000000000000000000000000000 DUP2 MSTORE PUSH1 0x4 ADD PUSH1 0x40 MLOAD DUP1 SWAP2 SUB SWAP1 REVERT JUMPDEST CALLER PUSH20 0xFFFFFFFFFFFFFFFFFFFFFFFFFFFFFFFFFFFFFFFF AND PUSH32 0x372B455B5163A0C4E2A6CF75F425B94AB0DF0D2E195B71985C0B39D3303F91B5 DUP5 PUSH1 0x40 MLOAD PUSH2 0x8D9 SWAP2 SWAP1 PUSH2 0x11B8 JUMP JUMPDEST PUSH1 0x40 MLOAD DUP1 SWAP2 SUB SWAP1 LOG2 POP POP PUSH2 0x8EB PUSH2 0xDAA JUMP JUMPDEST POP JUMP JUMPDEST PUSH2 0x8F6 PUSH2 0xCDD JUMP JUMPDEST PUSH2 0x8FE PUSH2 0xDB3 JUMP JUMPDEST JUMP JUMPDEST PUSH1 0x0 PUSH1 0x2 PUSH1 0x0 SWAP1 SLOAD SWAP1 PUSH2 0x100 EXP SWAP1 DIV PUSH1 0xFF AND SWAP1 POP SWAP1 JUMP JUMPDEST PUSH2 0x91F PUSH2 0xCDD JUMP JUMPDEST PUSH2 0x929 PUSH1 0x0 PUSH2 0xE16 JUMP JUMPDEST JUMP JUMPDEST PUSH2 0x933 PUSH2 0xCDD JUMP JUMPDEST PUSH1 0x0 PUSH1 0x8 DUP1 SLOAD SWAP1 POP SWAP1 POP PUSH1 0x0 JUMPDEST DUP2 DUP2 LT ISZERO PUSH2 0x977 JUMPI PUSH1 0x0 PUSH1 0x6 PUSH1 0x0 DUP4 DUP2 MSTORE PUSH1 0x20 ADD SWAP1 DUP2 MSTORE PUSH1 0x20 ADD PUSH1 0x0 KECCAK256 PUSH1 0x1 ADD DUP2 SWAP1 SSTORE POP DUP1 DUP1 PUSH2 0x96F SWAP1 PUSH2 0x177E JUMP JUMPDEST SWAP2 POP POP PUSH2 0x940 JUMP JUMPDEST POP CALLER PUSH20 0xFFFFFFFFFFFFFFFFFFFFFFFFFFFFFFFFFFFFFFFF AND PUSH32 0x938173B520D4F6CEC0FF68E5207BDE29E0B28470EB595CBB43AA3E4BD699E376 PUSH1 0x40 MLOAD PUSH1 0x40 MLOAD DUP1 SWAP2 SUB SWAP1 LOG2 POP JUMP JUMPDEST PUSH2 0x9C6 PUSH2 0xCDD JUMP JUMPDEST PUSH2 0x9CE PUSH2 0xEDA JUMP JUMPDEST JUMP JUMPDEST PUSH1 0x0 PUSH1 0x6 PUSH1 0x0 DUP4 DUP2 MSTORE PUSH1 0x20 ADD SWAP1 DUP2 MSTORE PUSH1 0x20 ADD PUSH1 0x0 KECCAK256 PUSH1 0x1 ADD SLOAD SWAP1 POP SWAP2 SWAP1 POP JUMP JUMPDEST PUSH2 0x9F8 PUSH2 0xCDD JUMP JUMPDEST DUP2 DUP2 PUSH1 0x6 PUSH1 0x0 PUSH1 0x4 SLOAD DUP2 MSTORE PUSH1 0x20 ADD SWAP1 DUP2 MSTORE PUSH1 0x20 ADD PUSH1 0x0 KECCAK256 PUSH1 0x0 ADD SWAP2 DUP3 PUSH2 0xA1F SWAP3 SWAP2 SWAP1 PUSH2 0x161F JUMP JUMPDEST POP PUSH1 0x8 PUSH1 0x4 SLOAD SWAP1 DUP1 PUSH1 0x1 DUP2 SLOAD ADD DUP1 DUP3 SSTORE DUP1 SWAP2 POP POP PUSH1 0x1 SWAP1 SUB SWAP1 PUSH1 0x0 MSTORE PUSH1 0x20 PUSH1 0x0 KECCAK256 ADD PUSH1 0x0 SWAP1 SWAP2 SWAP1 SWAP2 SWAP1 SWAP2 POP SSTORE PUSH1 0x4 SLOAD PUSH32 0x22342EE8723A4CA3FCC23E735BACDA3C533587947311340BC5BBD8415FC4A00D DUP4 DUP4 PUSH1 0x40 MLOAD PUSH2 0xA7F SWAP3 SWAP2 SWAP1 PUSH2 0x172B JUMP JUMPDEST PUSH1 0x40 MLOAD DUP1 SWAP2 SUB SWAP1 LOG2 PUSH1 0x4 PUSH1 0x0 DUP2 SLOAD DUP1 SWAP3 SWAP2 SWAP1 PUSH2 0xA9A SWAP1 PUSH2 0x177E JUMP JUMPDEST SWAP2 SWAP1 POP SSTORE POP POP POP JUMP JUMPDEST PUSH1 0x0 DUP1 PUSH1 0x0 SWAP1 SLOAD SWAP1 PUSH2 0x100 EXP SWAP1 DIV PUSH20 0xFFFFFFFFFFFFFFFFFFFFFFFFFFFFFFFFFFFFFFFF AND SWAP1 POP SWAP1 JUMP JUMPDEST PUSH1 0x60 PUSH1 0x5 PUSH1 0x0 DUP4 DUP2 MSTORE PUSH1 0x20 ADD SWAP1 DUP2 MSTORE PUSH1 0x20 ADD PUSH1 0x0 KECCAK256 PUSH1 0x0 ADD DUP1 SLOAD PUSH2 0xAEF SWAP1 PUSH2 0x1442 JUMP JUMPDEST DUP1 PUSH1 0x1F ADD PUSH1 0x20 DUP1 SWAP2 DIV MUL PUSH1 0x20 ADD PUSH1 0x40 MLOAD SWAP1 DUP2 ADD PUSH1 0x40 MSTORE DUP1 SWAP3 SWAP2 SWAP1 DUP2 DUP2 MSTORE PUSH1 0x20 ADD DUP3 DUP1 SLOAD PUSH2 0xB1B SWAP1 PUSH2 0x1442 JUMP JUMPDEST DUP1 ISZERO PUSH2 0xB68 JUMPI DUP1 PUSH1 0x1F LT PUSH2 0xB3D JUMPI PUSH2 0x100 DUP1 DUP4 SLOAD DIV MUL DUP4 MSTORE SWAP2 PUSH1 0x20 ADD SWAP2 PUSH2 0xB68 JUMP JUMPDEST DUP3 ADD SWAP2 SWAP1 PUSH1 0x0 MSTORE PUSH1 0x20 PUSH1 0x0 KECCAK256 SWAP1 JUMPDEST DUP2 SLOAD DUP2 MSTORE SWAP1 PUSH1 0x1 ADD SWAP1 PUSH1 0x20 ADD DUP1 DUP4 GT PUSH2 0xB4B JUMPI DUP3 SWAP1 SUB PUSH1 0x1F AND DUP3 ADD SWAP2 JUMPDEST POP POP POP POP POP SWAP1 POP SWAP2 SWAP1 POP JUMP JUMPDEST PUSH2 0xB7C PUSH2 0xCDD JUMP JUMPDEST DUP4 PUSH1 0x5 PUSH1 0x0 DUP8 DUP2 MSTORE PUSH1 0x20 ADD SWAP1 DUP2 MSTORE PUSH1 0x20 ADD PUSH1 0x0 KECCAK256 PUSH1 0x1 ADD PUSH1 0x0 DUP3 DUP3 SLOAD PUSH2 0xBA2 SWAP2 SWAP1 PUSH2 0x18C5 JUMP JUMPDEST SWAP3 POP POP DUP2 SWAP1 SSTORE POP DUP3 DUP5 PUSH2 0xBB5 SWAP2 SWAP1 PUSH2 0x17C6 JUMP JUMPDEST PUSH1 0x5 PUSH1 0x0 DUP8 DUP2 MSTORE PUSH1 0x20 ADD SWAP1 DUP2 MSTORE PUSH1 0x20 ADD PUSH1 0x0 KECCAK256 PUSH1 0x2 ADD PUSH1 0x0 DUP3 DUP3 SLOAD PUSH2 0xBDA SWAP2 SWAP1 PUSH2 0x18C5 JUMP JUMPDEST SWAP3 POP POP DUP2 SWAP1 SSTORE POP DUP2 DUP2 PUSH1 0x40 MLOAD PUSH2 0xBF1 SWAP3 SWAP2 SWAP1 PUSH2 0x196F JUMP JUMPDEST PUSH1 0x40 MLOAD DUP1 SWAP2 SUB SWAP1 KECCAK256 DUP6 PUSH32 0x29F5176E28BAECDC12A1D430D72CE270BAF3516B01719235CC5B30F23683E034 DUP7 DUP7 PUSH1 0x40 MLOAD PUSH2 0xC2B SWAP3 SWAP2 SWAP1 PUSH2 0x189C JUMP JUMPDEST PUSH1 0x40 MLOAD DUP1 SWAP2 SUB SWAP1 LOG3 POP POP POP POP POP JUMP JUMPDEST PUSH1 0x0 PUSH1 0x5 PUSH1 0x0 DUP4 DUP2 MSTORE PUSH1 0x20 ADD SWAP1 DUP2 MSTORE PUSH1 0x20 ADD PUSH1 0x0 KECCAK256 PUSH1 0x2 ADD SLOAD SWAP1 POP SWAP2 SWAP1 POP JUMP JUMPDEST PUSH2 0xC62 PUSH2 0xCDD JUMP JUMPDEST PUSH1 0x0 PUSH20 0xFFFFFFFFFFFFFFFFFFFFFFFFFFFFFFFFFFFFFFFF AND DUP2 PUSH20 0xFFFFFFFFFFFFFFFFFFFFFFFFFFFFFFFFFFFFFFFF AND SUB PUSH2 0xCD1 JUMPI PUSH1 0x40 MLOAD PUSH32 0x8C379A000000000000000000000000000000000000000000000000000000000 DUP2 MSTORE PUSH1 0x4 ADD PUSH2 0xCC8 SWAP1 PUSH2 0x19FA JUMP JUMPDEST PUSH1 0x40 MLOAD DUP1 SWAP2 SUB SWAP1 REVERT JUMPDEST PUSH2 0xCDA DUP2 PUSH2 0xE16 JUMP JUMPDEST POP JUMP JUMPDEST PUSH2 0xCE5 PUSH2 0xF3D JUMP JUMPDEST PUSH20 0xFFFFFFFFFFFFFFFFFFFFFFFFFFFFFFFFFFFFFFFF AND PUSH2 0xD03 PUSH2 0xAA3 JUMP JUMPDEST PUSH20 0xFFFFFFFFFFFFFFFFFFFFFFFFFFFFFFFFFFFFFFFF AND EQ PUSH2 0xD59 JUMPI PUSH1 0x40 MLOAD PUSH32 0x8C379A000000000000000000000000000000000000000000000000000000000 DUP2 MSTORE PUSH1 0x4 ADD PUSH2 0xD50 SWAP1 PUSH2 0x1A66 JUMP JUMPDEST PUSH1 0x40 MLOAD DUP1 SWAP2 SUB SWAP1 REVERT JUMPDEST JUMP JUMPDEST PUSH1 0x2 PUSH1 0x1 SLOAD SUB PUSH2 0xDA0 JUMPI PUSH1 0x40 MLOAD PUSH32 0x8C379A000000000000000000000000000000000000000000000000000000000 DUP2 MSTORE PUSH1 0x4 ADD PUSH2 0xD97 SWAP1 PUSH2 0x1AD2 JUMP JUMPDEST PUSH1 0x40 MLOAD DUP1 SWAP2 SUB SWAP1 REVERT JUMPDEST PUSH1 0x2 PUSH1 0x1 DUP2 SWAP1 SSTORE POP JUMP JUMPDEST PUSH1 0x1 DUP1 DUP2 SWAP1 SSTORE POP JUMP JUMPDEST PUSH2 0xDBB PUSH2 0xF45 JUMP JUMPDEST PUSH1 0x0 PUSH1 0x2 PUSH1 0x0 PUSH2 0x100 EXP DUP2 SLOAD DUP2 PUSH1 0xFF MUL NOT AND SWAP1 DUP4 ISZERO ISZERO MUL OR SWAP1 SSTORE POP PUSH32 0x5DB9EE0A495BF2E6FF9C91A7834C1BA4FDD244A5E8AA4E537BD38AEAE4B073AA PUSH2 0xDFF PUSH2 0xF3D JUMP JUMPDEST PUSH1 0x40 MLOAD PUSH2 0xE0C SWAP2 SWAP1 PUSH2 0x12DD JUMP JUMPDEST PUSH1 0x40 MLOAD DUP1 SWAP2 SUB SWAP1 LOG1 JUMP JUMPDEST PUSH1 0x0 DUP1 PUSH1 0x0 SWAP1 SLOAD SWAP1 PUSH2 0x100 EXP SWAP1 DIV PUSH20 0xFFFFFFFFFFFFFFFFFFFFFFFFFFFFFFFFFFFFFFFF AND SWAP1 POP DUP2 PUSH1 0x0 DUP1 PUSH2 0x100 EXP DUP2 SLOAD DUP2 PUSH20 0xFFFFFFFFFFFFFFFFFFFFFFFFFFFFFFFFFFFFFFFF MUL NOT AND SWAP1 DUP4 PUSH20 0xFFFFFFFFFFFFFFFFFFFFFFFFFFFFFFFFFFFFFFFF AND MUL OR SWAP1 SSTORE POP DUP2 PUSH20 0xFFFFFFFFFFFFFFFFFFFFFFFFFFFFFFFFFFFFFFFF AND DUP2 PUSH20 0xFFFFFFFFFFFFFFFFFFFFFFFFFFFFFFFFFFFFFFFF AND PUSH32 0x8BE0079C531659141344CD1FD0A4F28419497F9722A3DAAFE3B4186F6B6457E0 PUSH1 0x40 MLOAD PUSH1 0x40 MLOAD DUP1 SWAP2 SUB SWAP1 LOG3 POP POP JUMP JUMPDEST PUSH2 0xEE2 PUSH2 0xF8E JUMP JUMPDEST PUSH1 0x1 PUSH1 0x2 PUSH1 0x0 PUSH2 0x100 EXP DUP2 SLOAD DUP2 PUSH1 0xFF MUL NOT AND SWAP1 DUP4 ISZERO ISZERO MUL OR SWAP1 SSTORE POP PUSH32 0x62E78CEA01BEE320CD4E420270B5EA74000D11B0C9F74754EBDBFC544B05A258 PUSH2 0xF26 PUSH2 0xF3D JUMP JUMPDEST PUSH1 0x40 MLOAD PUSH2 0xF33 SWAP2 SWAP1 PUSH2 0x12DD JUMP JUMPDEST PUSH1 0x40 MLOAD DUP1 SWAP2 SUB SWAP1 LOG1 JUMP JUMPDEST PUSH1 0x0 CALLER SWAP1 POP SWAP1 JUMP JUMPDEST PUSH2 0xF4D PUSH2 0x900 JUMP JUMPDEST PUSH2 0xF8C JUMPI PUSH1 0x40 MLOAD PUSH32 0x8C379A000000000000000000000000000000000000000000000000000000000 DUP2 MSTORE PUSH1 0x4 ADD PUSH2 0xF83 SWAP1 PUSH2 0x1B3E JUMP JUMPDEST PUSH1 0x40 MLOAD DUP1 SWAP2 SUB SWAP1 REVERT JUMPDEST JUMP JUMPDEST PUSH2 0xF96 PUSH2 0x900 JUMP JUMPDEST ISZERO PUSH2 0xFD6 JUMPI PUSH1 0x40 MLOAD PUSH32 0x8C379A000000000000000000000000000000000000000000000000000000000 DUP2 MSTORE PUSH1 0x4 ADD PUSH2 0xFCD SWAP1 PUSH2 0x1BAA JUMP JUMPDEST PUSH1 0x40 MLOAD DUP1 SWAP2 SUB SWAP1 REVERT JUMPDEST JUMP JUMPDEST PUSH1 0x0 DUP1 REVERT JUMPDEST PUSH1 0x0 DUP1 REVERT JUMPDEST PUSH1 0x0 DUP1 REVERT JUMPDEST PUSH1 0x0 DUP1 REVERT JUMPDEST PUSH1 0x0 DUP1 REVERT JUMPDEST PUSH1 0x0 DUP1 DUP4 PUSH1 0x1F DUP5 ADD SLT PUSH2 0x1007 JUMPI PUSH2 0x1006 PUSH2 0xFE2 JUMP JUMPDEST JUMPDEST DUP3 CALLDATALOAD SWAP1 POP PUSH8 0xFFFFFFFFFFFFFFFF DUP2 GT ISZERO PUSH2 0x1024 JUMPI PUSH2 0x1023 PUSH2 0xFE7 JUMP JUMPDEST JUMPDEST PUSH1 0x20 DUP4 ADD SWAP2 POP DUP4 PUSH1 0x1 DUP3 MUL DUP4 ADD GT ISZERO PUSH2 0x1040 JUMPI PUSH2 0x103F PUSH2 0xFEC JUMP JUMPDEST JUMPDEST SWAP3 POP SWAP3 SWAP1 POP JUMP JUMPDEST PUSH1 0x0 DUP1 PUSH1 0x20 DUP4 DUP6 SUB SLT ISZERO PUSH2 0x105E JUMPI PUSH2 0x105D PUSH2 0xFD8 JUMP JUMPDEST JUMPDEST PUSH1 0x0 DUP4 ADD CALLDATALOAD PUSH8 0xFFFFFFFFFFFFFFFF DUP2 GT ISZERO PUSH2 0x107C JUMPI PUSH2 0x107B PUSH2 0xFDD JUMP JUMPDEST JUMPDEST PUSH2 0x1088 DUP6 DUP3 DUP7 ADD PUSH2 0xFF1 JUMP JUMPDEST SWAP3 POP SWAP3 POP POP SWAP3 POP SWAP3 SWAP1 POP JUMP JUMPDEST PUSH1 0x0 DUP2 SWAP1 POP SWAP2 SWAP1 POP JUMP JUMPDEST PUSH2 0x10A7 DUP2 PUSH2 0x1094 JUMP JUMPDEST DUP2 EQ PUSH2 0x10B2 JUMPI PUSH1 0x0 DUP1 REVERT JUMPDEST POP JUMP JUMPDEST PUSH1 0x0 DUP2 CALLDATALOAD SWAP1 POP PUSH2 0x10C4 DUP2 PUSH2 0x109E JUMP JUMPDEST SWAP3 SWAP2 POP POP JUMP JUMPDEST PUSH1 0x0 PUSH1 0x20 DUP3 DUP5 SUB SLT ISZERO PUSH2 0x10E0 JUMPI PUSH2 0x10DF PUSH2 0xFD8 JUMP JUMPDEST JUMPDEST PUSH1 0x0 PUSH2 0x10EE DUP5 DUP3 DUP6 ADD PUSH2 0x10B5 JUMP JUMPDEST SWAP2 POP POP SWAP3 SWAP2 POP POP JUMP JUMPDEST PUSH1 0x0 DUP2 MLOAD SWAP1 POP SWAP2 SWAP1 POP JUMP JUMPDEST PUSH1 0x0 DUP3 DUP3 MSTORE PUSH1 0x20 DUP3 ADD SWAP1 POP SWAP3 SWAP2 POP POP JUMP JUMPDEST PUSH1 0x0 JUMPDEST DUP4 DUP2 LT ISZERO PUSH2 0x1131 JUMPI DUP1 DUP3 ADD MLOAD DUP2 DUP5 ADD MSTORE PUSH1 0x20 DUP2 ADD SWAP1 POP PUSH2 0x1116 JUMP JUMPDEST PUSH1 0x0 DUP5 DUP5 ADD MSTORE POP POP POP POP JUMP JUMPDEST PUSH1 0x0 PUSH1 0x1F NOT PUSH1 0x1F DUP4 ADD AND SWAP1 POP SWAP2 SWAP1 POP JUMP JUMPDEST PUSH1 0x0 PUSH2 0x1159 DUP3 PUSH2 0x10F7 JUMP JUMPDEST PUSH2 0x1163 DUP2 DUP6 PUSH2 0x1102 JUMP JUMPDEST SWAP4 POP PUSH2 0x1173 DUP2 DUP6 PUSH1 0x20 DUP7 ADD PUSH2 0x1113 JUMP JUMPDEST PUSH2 0x117C DUP2 PUSH2 0x113D JUMP JUMPDEST DUP5 ADD SWAP2 POP POP SWAP3 SWAP2 POP POP JUMP JUMPDEST PUSH1 0x0 PUSH1 0x20 DUP3 ADD SWAP1 POP DUP2 DUP2 SUB PUSH1 0x0 DUP4 ADD MSTORE PUSH2 0x11A1 DUP2 DUP5 PUSH2 0x114E JUMP JUMPDEST SWAP1 POP SWAP3 SWAP2 POP POP JUMP JUMPDEST PUSH2 0x11B2 DUP2 PUSH2 0x1094 JUMP JUMPDEST DUP3 MSTORE POP POP JUMP JUMPDEST PUSH1 0x0 PUSH1 0x20 DUP3 ADD SWAP1 POP PUSH2 0x11CD PUSH1 0x0 DUP4 ADD DUP5 PUSH2 0x11A9 JUMP JUMPDEST SWAP3 SWAP2 POP POP JUMP JUMPDEST PUSH1 0x0 DUP1 PUSH1 0x0 PUSH1 0x60 DUP5 DUP7 SUB SLT ISZERO PUSH2 0x11EC JUMPI PUSH2 0x11EB PUSH2 0xFD8 JUMP JUMPDEST JUMPDEST PUSH1 0x0 PUSH2 0x11FA DUP7 DUP3 DUP8 ADD PUSH2 0x10B5 JUMP JUMPDEST SWAP4 POP POP PUSH1 0x20 PUSH2 0x120B DUP7 DUP3 DUP8 ADD PUSH2 0x10B5 JUMP JUMPDEST SWAP3 POP POP PUSH1 0x40 PUSH2 0x121C DUP7 DUP3 DUP8 ADD PUSH2 0x10B5 JUMP JUMPDEST SWAP2 POP POP SWAP3 POP SWAP3 POP SWAP3 JUMP JUMPDEST PUSH1 0x0 DUP1 PUSH1 0x40 DUP4 DUP6 SUB SLT ISZERO PUSH2 0x123D JUMPI PUSH2 0x123C PUSH2 0xFD8 JUMP JUMPDEST JUMPDEST PUSH1 0x0 PUSH2 0x124B DUP6 DUP3 DUP7 ADD PUSH2 0x10B5 JUMP JUMPDEST SWAP3 POP POP PUSH1 0x20 PUSH2 0x125C DUP6 DUP3 DUP7 ADD PUSH2 0x10B5 JUMP JUMPDEST SWAP2 POP POP SWAP3 POP SWAP3 SWAP1 POP JUMP JUMPDEST PUSH1 0x0 DUP2 ISZERO ISZERO SWAP1 POP SWAP2 SWAP1 POP JUMP JUMPDEST PUSH2 0x127B DUP2 PUSH2 0x1266 JUMP JUMPDEST DUP3 MSTORE POP POP JUMP JUMPDEST PUSH1 0x0 PUSH1 0x20 DUP3 ADD SWAP1 POP PUSH2 0x1296 PUSH1 0x0 DUP4 ADD DUP5 PUSH2 0x1272 JUMP JUMPDEST SWAP3 SWAP2 POP POP JUMP JUMPDEST PUSH1 0x0 PUSH20 0xFFFFFFFFFFFFFFFFFFFFFFFFFFFFFFFFFFFFFFFF DUP3 AND SWAP1 POP SWAP2 SWAP1 POP JUMP JUMPDEST PUSH1 0x0 PUSH2 0x12C7 DUP3 PUSH2 0x129C JUMP JUMPDEST SWAP1 POP SWAP2 SWAP1 POP JUMP JUMPDEST PUSH2 0x12D7 DUP2 PUSH2 0x12BC JUMP JUMPDEST DUP3 MSTORE POP POP JUMP JUMPDEST PUSH1 0x0 PUSH1 0x20 DUP3 ADD SWAP1 POP PUSH2 0x12F2 PUSH1 0x0 DUP4 ADD DUP5 PUSH2 0x12CE JUMP JUMPDEST SWAP3 SWAP2 POP POP JUMP JUMPDEST PUSH1 0x0 DUP1 PUSH1 0x0 DUP1 PUSH1 0x0 PUSH1 0x80 DUP7 DUP9 SUB SLT ISZERO PUSH2 0x1314 JUMPI PUSH2 0x1313 PUSH2 0xFD8 JUMP JUMPDEST JUMPDEST PUSH1 0x0 PUSH2 0x1322 DUP9 DUP3 DUP10 ADD PUSH2 0x10B5 JUMP JUMPDEST SWAP6 POP POP PUSH1 0x20 PUSH2 0x1333 DUP9 DUP3 DUP10 ADD PUSH2 0x10B5 JUMP JUMPDEST SWAP5 POP POP PUSH1 0x40 PUSH2 0x1344 DUP9 DUP3 DUP10 ADD PUSH2 0x10B5 JUMP JUMPDEST SWAP4 POP POP PUSH1 0x60 DUP7 ADD CALLDATALOAD PUSH8 0xFFFFFFFFFFFFFFFF DUP2 GT ISZERO PUSH2 0x1365 JUMPI PUSH2 0x1364 PUSH2 0xFDD JUMP JUMPDEST JUMPDEST PUSH2 0x1371 DUP9 DUP3 DUP10 ADD PUSH2 0xFF1 JUMP JUMPDEST SWAP3 POP SWAP3 POP POP SWAP3 SWAP6 POP SWAP3 SWAP6 SWAP1 SWAP4 POP JUMP JUMPDEST PUSH2 0x1389 DUP2 PUSH2 0x12BC JUMP JUMPDEST DUP2 EQ PUSH2 0x1394 JUMPI PUSH1 0x0 DUP1 REVERT JUMPDEST POP JUMP JUMPDEST PUSH1 0x0 DUP2 CALLDATALOAD SWAP1 POP PUSH2 0x13A6 DUP2 PUSH2 0x1380 JUMP JUMPDEST SWAP3 SWAP2 POP POP JUMP JUMPDEST PUSH1 0x0 PUSH1 0x20 DUP3 DUP5 SUB SLT ISZERO PUSH2 0x13C2 JUMPI PUSH2 0x13C1 PUSH2 0xFD8 JUMP JUMPDEST JUMPDEST PUSH1 0x0 PUSH2 0x13D0 DUP5 DUP3 DUP6 ADD PUSH2 0x1397 JUMP JUMPDEST SWAP2 POP POP SWAP3 SWAP2 POP POP JUMP JUMPDEST PUSH1 0x0 DUP3 SWAP1 POP SWAP3 SWAP2 POP POP JUMP JUMPDEST PUSH32 0x4E487B7100000000000000000000000000000000000000000000000000000000 PUSH1 0x0 MSTORE PUSH1 0x41 PUSH1 0x4 MSTORE PUSH1 0x24 PUSH1 0x0 REVERT JUMPDEST PUSH32 0x4E487B7100000000000000000000000000000000000000000000000000000000 PUSH1 0x0 MSTORE PUSH1 0x22 PUSH1 0x4 MSTORE PUSH1 0x24 PUSH1 0x0 REVERT JUMPDEST PUSH1 0x0 PUSH1 0x2 DUP3 DIV SWAP1 POP PUSH1 0x1 DUP3 AND DUP1 PUSH2 0x145A JUMPI PUSH1 0x7F DUP3 AND SWAP2 POP JUMPDEST PUSH1 0x20 DUP3 LT DUP2 SUB PUSH2 0x146D JUMPI PUSH2 0x146C PUSH2 0x1413 JUMP JUMPDEST JUMPDEST POP SWAP2 SWAP1 POP JUMP JUMPDEST PUSH1 0x0 DUP2 SWAP1 POP DUP2 PUSH1 0x0 MSTORE PUSH1 0x20 PUSH1 0x0 KECCAK256 SWAP1 POP SWAP2 SWAP1 POP JUMP JUMPDEST PUSH1 0x0 PUSH1 0x20 PUSH1 0x1F DUP4 ADD DIV SWAP1 POP SWAP2 SWAP1 POP JUMP JUMPDEST PUSH1 0x0 DUP3 DUP3 SHL SWAP1 POP SWAP3 SWAP2 POP POP JUMP JUMPDEST PUSH1 0x0 PUSH1 0x8 DUP4 MUL PUSH2 0x14D5 PUSH32 0xFFFFFFFFFFFFFFFFFFFFFFFFFFFFFFFFFFFFFFFFFFFFFFFFFFFFFFFFFFFFFFFF DUP3 PUSH2 0x1498 JUMP JUMPDEST PUSH2 0x14DF DUP7 DUP4 PUSH2 0x1498 JUMP JUMPDEST SWAP6 POP DUP1 NOT DUP5 AND SWAP4 POP DUP1 DUP7 AND DUP5 OR SWAP3 POP POP POP SWAP4 SWAP3 POP POP POP JUMP JUMPDEST PUSH1 0x0 DUP2 SWAP1 POP SWAP2 SWAP1 POP JUMP JUMPDEST PUSH1 0x0 PUSH2 0x151C PUSH2 0x1517 PUSH2 0x1512 DUP5 PUSH2 0x1094 JUMP JUMPDEST PUSH2 0x14F7 JUMP JUMPDEST PUSH2 0x1094 JUMP JUMPDEST SWAP1 POP SWAP2 SWAP1 POP JUMP JUMPDEST PUSH1 0x0 DUP2 SWAP1 POP SWAP2 SWAP1 POP JUMP JUMPDEST PUSH2 0x1536 DUP4 PUSH2 0x1501 JUMP JUMPDEST PUSH2 0x154A PUSH2 0x1542 DUP3 PUSH2 0x1523 JUMP JUMPDEST DUP5 DUP5 SLOAD PUSH2 0x14A5 JUMP JUMPDEST DUP3 SSTORE POP POP POP POP JUMP JUMPDEST PUSH1 0x0 SWAP1 JUMP JUMPDEST PUSH2 0x155F PUSH2 0x1552 JUMP JUMPDEST PUSH2 0x156A DUP2 DUP5 DUP5 PUSH2 0x152D JUMP JUMPDEST POP POP POP JUMP JUMPDEST JUMPDEST DUP2 DUP2 LT ISZERO PUSH2 0x158E JUMPI PUSH2 0x1583 PUSH1 0x0 DUP3 PUSH2 0x1557 JUMP JUMPDEST PUSH1 0x1 DUP2 ADD SWAP1 POP PUSH2 0x1570 JUMP JUMPDEST POP POP JUMP JUMPDEST PUSH1 0x1F DUP3 GT ISZERO PUSH2 0x15D3 JUMPI PUSH2 0x15A4 DUP2 PUSH2 0x1473 JUMP JUMPDEST PUSH2 0x15AD DUP5 PUSH2 0x1488 JUMP JUMPDEST DUP2 ADD PUSH1 0x20 DUP6 LT ISZERO PUSH2 0x15BC JUMPI DUP2 SWAP1 POP JUMPDEST PUSH2 0x15D0 PUSH2 0x15C8 DUP6 PUSH2 0x1488 JUMP JUMPDEST DUP4 ADD DUP3 PUSH2 0x156F JUMP JUMPDEST POP POP JUMPDEST POP POP POP JUMP JUMPDEST PUSH1 0x0 DUP3 DUP3 SHR SWAP1 POP SWAP3 SWAP2 POP POP JUMP JUMPDEST PUSH1 0x0 PUSH2 0x15F6 PUSH1 0x0 NOT DUP5 PUSH1 0x8 MUL PUSH2 0x15D8 JUMP JUMPDEST NOT DUP1 DUP4 AND SWAP2 POP POP SWAP3 SWAP2 POP POP JUMP JUMPDEST PUSH1 0x0 PUSH2 0x160F DUP4 DUP4 PUSH2 0x15E5 JUMP JUMPDEST SWAP2 POP DUP3 PUSH1 0x2 MUL DUP3 OR SWAP1 POP SWAP3 SWAP2 POP POP JUMP JUMPDEST PUSH2 0x1629 DUP4 DUP4 PUSH2 0x13D9 JUMP JUMPDEST PUSH8 0xFFFFFFFFFFFFFFFF DUP2 GT ISZERO PUSH2 0x1642 JUMPI PUSH2 0x1641 PUSH2 0x13E4 JUMP JUMPDEST JUMPDEST PUSH2 0x164C DUP3 SLOAD PUSH2 0x1442 JUMP JUMPDEST PUSH2 0x1657 DUP3 DUP3 DUP6 PUSH2 0x1592 JUMP JUMPDEST PUSH1 0x0 PUSH1 0x1F DUP4 GT PUSH1 0x1 DUP2 EQ PUSH2 0x1686 JUMPI PUSH1 0x0 DUP5 ISZERO PUSH2 0x1674 JUMPI DUP3 DUP8 ADD CALLDATALOAD SWAP1 POP JUMPDEST PUSH2 0x167E DUP6 DUP3 PUSH2 0x1603 JUMP JUMPDEST DUP7 SSTORE POP PUSH2 0x16E6 JUMP JUMPDEST PUSH1 0x1F NOT DUP5 AND PUSH2 0x1694 DUP7 PUSH2 0x1473 JUMP JUMPDEST PUSH1 0x0 JUMPDEST DUP3 DUP2 LT ISZERO PUSH2 0x16BC JUMPI DUP5 DUP10 ADD CALLDATALOAD DUP3 SSTORE PUSH1 0x1 DUP3 ADD SWAP2 POP PUSH1 0x20 DUP6 ADD SWAP5 POP PUSH1 0x20 DUP2 ADD SWAP1 POP PUSH2 0x1697 JUMP JUMPDEST DUP7 DUP4 LT ISZERO PUSH2 0x16D9 JUMPI DUP5 DUP10 ADD CALLDATALOAD PUSH2 0x16D5 PUSH1 0x1F DUP10 AND DUP3 PUSH2 0x15E5 JUMP JUMPDEST DUP4 SSTORE POP JUMPDEST PUSH1 0x1 PUSH1 0x2 DUP9 MUL ADD DUP9 SSTORE POP POP POP JUMPDEST POP POP POP POP POP POP POP JUMP JUMPDEST DUP3 DUP2 DUP4 CALLDATACOPY PUSH1 0x0 DUP4 DUP4 ADD MSTORE POP POP POP JUMP JUMPDEST PUSH1 0x0 PUSH2 0x170A DUP4 DUP6 PUSH2 0x1102 JUMP JUMPDEST SWAP4 POP PUSH2 0x1717 DUP4 DUP6 DUP5 PUSH2 0x16EF JUMP JUMPDEST PUSH2 0x1720 DUP4 PUSH2 0x113D JUMP JUMPDEST DUP5 ADD SWAP1 POP SWAP4 SWAP3 POP POP POP JUMP JUMPDEST PUSH1 0x0 PUSH1 0x20 DUP3 ADD SWAP1 POP DUP2 DUP2 SUB PUSH1 0x0 DUP4 ADD MSTORE PUSH2 0x1746 DUP2 DUP5 DUP7 PUSH2 0x16FE JUMP JUMPDEST SWAP1 POP SWAP4 SWAP3 POP POP POP JUMP JUMPDEST PUSH32 0x4E487B7100000000000000000000000000000000000000000000000000000000 PUSH1 0x0 MSTORE PUSH1 0x11 PUSH1 0x4 MSTORE PUSH1 0x24 PUSH1 0x0 REVERT JUMPDEST PUSH1 0x0 PUSH2 0x1789 DUP3 PUSH2 0x1094 JUMP JUMPDEST SWAP2 POP PUSH32 0xFFFFFFFFFFFFFFFFFFFFFFFFFFFFFFFFFFFFFFFFFFFFFFFFFFFFFFFFFFFFFFFF DUP3 SUB PUSH2 0x17BB JUMPI PUSH2 0x17BA PUSH2 0x174F JUMP JUMPDEST JUMPDEST PUSH1 0x1 DUP3 ADD SWAP1 POP SWAP2 SWAP1 POP JUMP JUMPDEST PUSH1 0x0 PUSH2 0x17D1 DUP3 PUSH2 0x1094 JUMP JUMPDEST SWAP2 POP PUSH2 0x17DC DUP4 PUSH2 0x1094 JUMP JUMPDEST SWAP3 POP DUP3 DUP3 MUL PUSH2 0x17EA DUP2 PUSH2 0x1094 JUMP JUMPDEST SWAP2 POP DUP3 DUP3 DIV DUP5 EQ DUP4 ISZERO OR PUSH2 0x1801 JUMPI PUSH2 0x1800 PUSH2 0x174F JUMP JUMPDEST JUMPDEST POP SWAP3 SWAP2 POP POP JUMP JUMPDEST PUSH1 0x0 PUSH2 0x1813 DUP3 PUSH2 0x1094 JUMP JUMPDEST SWAP2 POP PUSH2 0x181E DUP4 PUSH2 0x1094 JUMP JUMPDEST SWAP3 POP DUP3 DUP3 SUB SWAP1 POP DUP2 DUP2 GT ISZERO PUSH2 0x1836 JUMPI PUSH2 0x1835 PUSH2 0x174F JUMP JUMPDEST JUMPDEST SWAP3 SWAP2 POP POP JUMP JUMPDEST PUSH32 0x4E487B7100000000000000000000000000000000000000000000000000000000 PUSH1 0x0 MSTORE PUSH1 0x12 PUSH1 0x4 MSTORE PUSH1 0x24 PUSH1 0x0 REVERT JUMPDEST PUSH1 0x0 PUSH2 0x1876 DUP3 PUSH2 0x1094 JUMP JUMPDEST SWAP2 POP PUSH2 0x1881 DUP4 PUSH2 0x1094 JUMP JUMPDEST SWAP3 POP DUP3 PUSH2 0x1891 JUMPI PUSH2 0x1890 PUSH2 0x183C JUMP JUMPDEST JUMPDEST DUP3 DUP3 DIV SWAP1 POP SWAP3 SWAP2 POP POP JUMP JUMPDEST PUSH1 0x0 PUSH1 0x40 DUP3 ADD SWAP1 POP PUSH2 0x18B1 PUSH1 0x0 DUP4 ADD DUP6 PUSH2 0x11A9 JUMP JUMPDEST PUSH2 0x18BE PUSH1 0x20 DUP4 ADD DUP5 PUSH2 0x11A9 JUMP JUMPDEST SWAP4 SWAP3 POP POP POP JUMP JUMPDEST PUSH1 0x0 PUSH2 0x18D0 DUP3 PUSH2 0x1094 JUMP JUMPDEST SWAP2 POP PUSH2 0x18DB DUP4 PUSH2 0x1094 JUMP JUMPDEST SWAP3 POP DUP3 DUP3 ADD SWAP1 POP DUP1 DUP3 GT ISZERO PUSH2 0x18F3 JUMPI PUSH2 0x18F2 PUSH2 0x174F JUMP JUMPDEST JUMPDEST SWAP3 SWAP2 POP POP JUMP JUMPDEST PUSH1 0x0 DUP2 SWAP1 POP SWAP3 SWAP2 POP POP JUMP JUMPDEST POP JUMP JUMPDEST PUSH1 0x0 PUSH2 0x1914 PUSH1 0x0 DUP4 PUSH2 0x18F9 JUMP JUMPDEST SWAP2 POP PUSH2 0x191F DUP3 PUSH2 0x1904 JUMP JUMPDEST PUSH1 0x0 DUP3 ADD SWAP1 POP SWAP2 SWAP1 POP JUMP JUMPDEST PUSH1 0x0 PUSH2 0x1935 DUP3 PUSH2 0x1907 JUMP JUMPDEST SWAP2 POP DUP2 SWAP1 POP SWAP2 SWAP1 POP JUMP JUMPDEST PUSH1 0x0 DUP2 SWAP1 POP SWAP3 SWAP2 POP POP JUMP JUMPDEST PUSH1 0x0 PUSH2 0x1956 DUP4 DUP6 PUSH2 0x193F JUMP JUMPDEST SWAP4 POP PUSH2 0x1963 DUP4 DUP6 DUP5 PUSH2 0x16EF JUMP JUMPDEST DUP3 DUP5 ADD SWAP1 POP SWAP4 SWAP3 POP POP POP JUMP JUMPDEST PUSH1 0x0 PUSH2 0x197C DUP3 DUP5 DUP7 PUSH2 0x194A JUMP JUMPDEST SWAP2 POP DUP2 SWAP1 POP SWAP4 SWAP3 POP POP POP JUMP JUMPDEST PUSH32 0x4F776E61626C653A206E6577206F776E657220697320746865207A65726F2061 PUSH1 0x0 DUP3 ADD MSTORE PUSH32 0x6464726573730000000000000000000000000000000000000000000000000000 PUSH1 0x20 DUP3 ADD MSTORE POP JUMP JUMPDEST PUSH1 0x0 PUSH2 0x19E4 PUSH1 0x26 DUP4 PUSH2 0x1102 JUMP JUMPDEST SWAP2 POP PUSH2 0x19EF DUP3 PUSH2 0x1988 JUMP JUMPDEST PUSH1 0x40 DUP3 ADD SWAP1 POP SWAP2 SWAP1 POP JUMP JUMPDEST PUSH1 0x0 PUSH1 0x20 DUP3 ADD SWAP1 POP DUP2 DUP2 SUB PUSH1 0x0 DUP4 ADD MSTORE PUSH2 0x1A13 DUP2 PUSH2 0x19D7 JUMP JUMPDEST SWAP1 POP SWAP2 SWAP1 POP JUMP JUMPDEST PUSH32 0x4F776E61626C653A2063616C6C6572206973206E6F7420746865206F776E6572 PUSH1 0x0 DUP3 ADD MSTORE POP JUMP JUMPDEST PUSH1 0x0 PUSH2 0x1A50 PUSH1 0x20 DUP4 PUSH2 0x1102 JUMP JUMPDEST SWAP2 POP PUSH2 0x1A5B DUP3 PUSH2 0x1A1A JUMP JUMPDEST PUSH1 0x20 DUP3 ADD SWAP1 POP SWAP2 SWAP1 POP JUMP JUMPDEST PUSH1 0x0 PUSH1 0x20 DUP3 ADD SWAP1 POP DUP2 DUP2 SUB PUSH1 0x0 DUP4 ADD MSTORE PUSH2 0x1A7F DUP2 PUSH2 0x1A43 JUMP JUMPDEST SWAP1 POP SWAP2 SWAP1 POP JUMP JUMPDEST PUSH32 0x5265656E7472616E637947756172643A207265656E7472616E742063616C6C00 PUSH1 0x0 DUP3 ADD MSTORE POP JUMP JUMPDEST PUSH1 0x0 PUSH2 0x1ABC PUSH1 0x1F DUP4 PUSH2 0x1102 JUMP JUMPDEST SWAP2 POP PUSH2 0x1AC7 DUP3 PUSH2 0x1A86 JUMP JUMPDEST PUSH1 0x20 DUP3 ADD SWAP1 POP SWAP2 SWAP1 POP JUMP JUMPDEST PUSH1 0x0 PUSH1 0x20 DUP3 ADD SWAP1 POP DUP2 DUP2 SUB PUSH1 0x0 DUP4 ADD MSTORE PUSH2 0x1AEB DUP2 PUSH2 0x1AAF JUMP JUMPDEST SWAP1 POP SWAP2 SWAP1 POP JUMP JUMPDEST PUSH32 0x5061757361626C653A206E6F7420706175736564000000000000000000000000 PUSH1 0x0 DUP3 ADD MSTORE POP JUMP JUMPDEST PUSH1 0x0 PUSH2 0x1B28 PUSH1 0x14 DUP4 PUSH2 0x1102 JUMP JUMPDEST SWAP2 POP PUSH2 0x1B33 DUP3 PUSH2 0x1AF2 JUMP JUMPDEST PUSH1 0x20 DUP3 ADD SWAP1 POP SWAP2 SWAP1 POP JUMP JUMPDEST PUSH1 0x0 PUSH1 0x20 DUP3 ADD SWAP1 POP DUP2 DUP2 SUB PUSH1 0x0 DUP4 ADD MSTORE PUSH2 0x1B57 DUP2 PUSH2 0x1B1B JUMP JUMPDEST SWAP1 POP SWAP2 SWAP1 POP JUMP JUMPDEST PUSH32 0x5061757361626C653A2070617573656400000000000000000000000000000000 PUSH1 0x0 DUP3 ADD MSTORE POP JUMP JUMPDEST PUSH1 0x0 PUSH2 0x1B94 PUSH1 0x10 DUP4 PUSH2 0x1102 JUMP JUMPDEST SWAP2 POP PUSH2 0x1B9F DUP3 PUSH2 0x1B5E JUMP JUMPDEST PUSH1 0x20 DUP3 ADD SWAP1 POP SWAP2 SWAP1 POP JUMP JUMPDEST PUSH1 0x0 PUSH1 0x20 DUP3 ADD SWAP1 POP DUP2 DUP2 SUB PUSH1 0x0 DUP4 ADD MSTORE PUSH2 0x1BC3 DUP2 PUSH2 0x1B87 JUMP JUMPDEST SWAP1 POP SWAP2 SWAP1 POP JUMP INVALID LOG2 PUSH5 0x6970667358 0x22 SLT KECCAK256 SWAP12 PUSH24 0x544C43EFBD61A8A4712249E6F0D2FE03B3B8968414BABFFC 0x26 0xAB 0xC1 PUSH29 0x76B964736F6C6343000815003300000000000000000000000000000000 "},"methodIdentifiers":{"buyInventroy(uint256,uint256,uint256,string)":"bf4556d0","closeOutExpenses()":"734e7dba","createExpense(string)":"8d28a0bb","createProduct(string)":"02ec06be","getBalance()":"12065fe0","getExpenseCost(uint256)":"8a66f933","getExpenseName(uint256)":"04a8b495","getInventoryCost(uint256)":"c9acaa74","getInventoryQTY(uint256)":"24c4de15","getProductName(uint256)":"9e62e795","owner()":"8da5cb5b","ownerWithdraw(uint256)":"33f707d1","pause()":"8456cb59","paused()":"5c975abb","postExpense(uint256,uint256)":"2e58cb9f","renounceOwnership()":"715018a6","sellInventory(uint256,uint256,uint256)":"2b8936cd","transferOwnership(address)":"f2fde38b","unpause()":"3f4ba83a"}}}}}