{
  "_format": "hh-sol-artifact-1",
  "contractName": "MyShop",
  "sourceName": "contracts/MyShop.sol",
  "abi": [
    {
      "inputs": [],
      "name": "MyShop__NotEnoughBalance",
      "type": "error"
    },
    {
      "inputs": [],
      "name": "MyShop__NotEnoughInventory",
      "type": "error"
    },
    {
      "inputs": [],
      "name": "MyShop__SentOwnerFailed",
      "type": "error"
    },
    {
      "inputs": [],
      "name": "MyShop__WrongPaymentAmount",
      "type": "error"
    },
    {
      "anonymous": false,
      "inputs": [
        {
          "indexed": true,
          "internalType": "uint256",
          "name": "productId",
          "type": "uint256"
        },
        {
          "indexed": false,
          "internalType": "uint256",
          "name": "quantity",
          "type": "uint256"
        },
        {
          "indexed": false,
          "internalType": "uint256",
          "name": "price",
          "type": "uint256"
        },
        {
          "indexed": true,
          "internalType": "string",
          "name": "vendor",
          "type": "string"
        }
      ],
      "name": "BoughtInventory",
      "type": "event"
    },
    {
      "anonymous": false,
      "inputs": [
        {
          "indexed": true,
          "internalType": "address",
          "name": "owner",
          "type": "address"
        }
      ],
      "name": "ClosedOutExpenses",
      "type": "event"
    },
    {
      "anonymous": false,
      "inputs": [
        {
          "indexed": true,
          "internalType": "uint256",
          "name": "expenseId",
          "type": "uint256"
        },
        {
          "indexed": false,
          "internalType": "string",
          "name": "name",
          "type": "string"
        }
      ],
      "name": "CreatedExpense",
      "type": "event"
    },
    {
      "anonymous": false,
      "inputs": [
        {
          "indexed": true,
          "internalType": "uint256",
          "name": "productId",
          "type": "uint256"
        },
        {
          "indexed": false,
          "internalType": "string",
          "name": "name",
          "type": "string"
        }
      ],
      "name": "CreatedProduct",
      "type": "event"
    },
    {
      "anonymous": false,
      "inputs": [
        {
          "indexed": true,
          "internalType": "address",
          "name": "owner",
          "type": "address"
        },
        {
          "indexed": false,
          "internalType": "uint256",
          "name": "amount",
          "type": "uint256"
        }
      ],
      "name": "OwnerWithdrew",
      "type": "event"
    },
    {
      "anonymous": false,
      "inputs": [
        {
          "indexed": true,
          "internalType": "address",
          "name": "previousOwner",
          "type": "address"
        },
        {
          "indexed": true,
          "internalType": "address",
          "name": "newOwner",
          "type": "address"
        }
      ],
      "name": "OwnershipTransferred",
      "type": "event"
    },
    {
      "anonymous": false,
      "inputs": [
        {
          "indexed": false,
          "internalType": "address",
          "name": "account",
          "type": "address"
        }
      ],
      "name": "Paused",
      "type": "event"
    },
    {
      "anonymous": false,
      "inputs": [
        {
          "indexed": true,
          "internalType": "uint256",
          "name": "expenseId",
          "type": "uint256"
        },
        {
          "indexed": false,
          "internalType": "uint256",
          "name": "amount",
          "type": "uint256"
        }
      ],
      "name": "PostedExpense",
      "type": "event"
    },
    {
      "anonymous": false,
      "inputs": [
        {
          "indexed": true,
          "internalType": "uint256",
          "name": "productId",
          "type": "uint256"
        },
        {
          "indexed": false,
          "internalType": "uint256",
          "name": "quantity",
          "type": "uint256"
        },
        {
          "indexed": false,
          "internalType": "uint256",
          "name": "price",
          "type": "uint256"
        },
        {
          "indexed": true,
          "internalType": "address",
          "name": "customer",
          "type": "address"
        }
      ],
      "name": "SoldInventory",
      "type": "event"
    },
    {
      "anonymous": false,
      "inputs": [
        {
          "indexed": false,
          "internalType": "address",
          "name": "account",
          "type": "address"
        }
      ],
      "name": "Unpaused",
      "type": "event"
    },
    {
      "inputs": [
        {
          "internalType": "uint256",
          "name": "productId",
          "type": "uint256"
        },
        {
          "internalType": "uint256",
          "name": "quantity",
          "type": "uint256"
        },
        {
          "internalType": "uint256",
          "name": "price",
          "type": "uint256"
        },
        {
          "internalType": "string",
          "name": "vendor",
          "type": "string"
        }
      ],
      "name": "buyInventroy",
      "outputs": [],
      "stateMutability": "nonpayable",
      "type": "function"
    },
    {
      "inputs": [],
      "name": "closeOutExpenses",
      "outputs": [],
      "stateMutability": "nonpayable",
      "type": "function"
    },
    {
      "inputs": [
        {
          "internalType": "string",
          "name": "_name",
          "type": "string"
        }
      ],
      "name": "createExpense",
      "outputs": [],
      "stateMutability": "nonpayable",
      "type": "function"
    },
    {
      "inputs": [
        {
          "internalType": "string",
          "name": "_name",
          "type": "string"
        }
      ],
      "name": "createProduct",
      "outputs": [],
      "stateMutability": "nonpayable",
      "type": "function"
    },
    {
      "inputs": [],
      "name": "getBalance",
      "outputs": [
        {
          "internalType": "uint256",
          "name": "",
          "type": "uint256"
        }
      ],
      "stateMutability": "view",
      "type": "function"
    },
    {
      "inputs": [
        {
          "internalType": "uint256",
          "name": "expenseId",
          "type": "uint256"
        }
      ],
      "name": "getExpenseCost",
      "outputs": [
        {
          "internalType": "uint256",
          "name": "",
          "type": "uint256"
        }
      ],
      "stateMutability": "view",
      "type": "function"
    },
    {
      "inputs": [
        {
          "internalType": "uint256",
          "name": "expenseId",
          "type": "uint256"
        }
      ],
      "name": "getExpenseName",
      "outputs": [
        {
          "internalType": "string",
          "name": "",
          "type": "string"
        }
      ],
      "stateMutability": "view",
      "type": "function"
    },
    {
      "inputs": [
        {
          "internalType": "uint256",
          "name": "productId",
          "type": "uint256"
        }
      ],
      "name": "getInventoryCost",
      "outputs": [
        {
          "internalType": "uint256",
          "name": "",
          "type": "uint256"
        }
      ],
      "stateMutability": "view",
      "type": "function"
    },
    {
      "inputs": [
        {
          "internalType": "uint256",
          "name": "productId",
          "type": "uint256"
        }
      ],
      "name": "getInventoryQTY",
      "outputs": [
        {
          "internalType": "uint256",
          "name": "",
          "type": "uint256"
        }
      ],
      "stateMutability": "view",
      "type": "function"
    },
    {
      "inputs": [
        {
          "internalType": "uint256",
          "name": "productId",
          "type": "uint256"
        }
      ],
      "name": "getProductName",
      "outputs": [
        {
          "internalType": "string",
          "name": "",
          "type": "string"
        }
      ],
      "stateMutability": "view",
      "type": "function"
    },
    {
      "inputs": [],
      "name": "owner",
      "outputs": [
        {
          "internalType": "address",
          "name": "",
          "type": "address"
        }
      ],
      "stateMutability": "view",
      "type": "function"
    },
    {
      "inputs": [
        {
          "internalType": "uint256",
          "name": "withdrawAmount",
          "type": "uint256"
        }
      ],
      "name": "ownerWithdraw",
      "outputs": [],
      "stateMutability": "nonpayable",
      "type": "function"
    },
    {
      "inputs": [],
      "name": "pause",
      "outputs": [],
      "stateMutability": "nonpayable",
      "type": "function"
    },
    {
      "inputs": [],
      "name": "paused",
      "outputs": [
        {
          "internalType": "bool",
          "name": "",
          "type": "bool"
        }
      ],
      "stateMutability": "view",
      "type": "function"
    },
    {
      "inputs": [
        {
          "internalType": "uint256",
          "name": "expenseId",
          "type": "uint256"
        },
        {
          "internalType": "uint256",
          "name": "amount",
          "type": "uint256"
        }
      ],
      "name": "postExpense",
      "outputs": [],
      "stateMutability": "nonpayable",
      "type": "function"
    },
    {
      "inputs": [],
      "name": "renounceOwnership",
      "outputs": [],
      "stateMutability": "nonpayable",
      "type": "function"
    },
    {
      "inputs": [
        {
          "internalType": "uint256",
          "name": "productId",
          "type": "uint256"
        },
        {
          "internalType": "uint256",
          "name": "quantity",
          "type": "uint256"
        },
        {
          "internalType": "uint256",
          "name": "price",
          "type": "uint256"
        }
      ],
      "name": "sellInventory",
      "outputs": [],
      "stateMutability": "payable",
      "type": "function"
    },
    {
      "inputs": [
        {
          "internalType": "address",
          "name": "newOwner",
          "type": "address"
        }
      ],
      "name": "transferOwnership",
      "outputs": [],
      "stateMutability": "nonpayable",
      "type": "function"
    },
    {
      "inputs": [],
      "name": "unpause",
      "outputs": [],
      "stateMutability": "nonpayable",
      "type": "function"
    }
  ],
  "bytecode": "0x608060405234801561001057600080fd5b5061002d61002261005460201b60201c565b61005c60201b60201c565b600180819055506000600260006101000a81548160ff021916908315150217905550610120565b600033905090565b60008060009054906101000a900473ffffffffffffffffffffffffffffffffffffffff169050816000806101000a81548173ffffffffffffffffffffffffffffffffffffffff021916908373ffffffffffffffffffffffffffffffffffffffff1602179055508173ffffffffffffffffffffffffffffffffffffffff168173ffffffffffffffffffffffffffffffffffffffff167f8be0079c531659141344cd1fd0a4f28419497f9722a3daafe3b4186f6b6457e060405160405180910390a35050565b611c008061012f6000396000f3fe6080604052600436106101145760003560e01c8063715018a6116100a05780638da5cb5b116100645780638da5cb5b146103425780639e62e7951461036d578063bf4556d0146103aa578063c9acaa74146103d3578063f2fde38b1461041057610114565b8063715018a614610297578063734e7dba146102ae5780638456cb59146102c55780638a66f933146102dc5780638d28a0bb1461031957610114565b80632b8936cd116100e75780632b8936cd146101e75780632e58cb9f1461020357806333f707d11461022c5780633f4ba83a146102555780635c975abb1461026c57610114565b806302ec06be1461011957806304a8b4951461014257806312065fe01461017f57806324c4de15146101aa575b600080fd5b34801561012557600080fd5b50610140600480360381019061013b9190611047565b610439565b005b34801561014e57600080fd5b50610169600480360381019061016491906110ca565b6104ec565b6040516101769190611187565b60405180910390f35b34801561018b57600080fd5b50610194610594565b6040516101a191906111b8565b60405180910390f35b3480156101b657600080fd5b506101d160048036038101906101cc91906110ca565b61059c565b6040516101de91906111b8565b60405180910390f35b61020160048036038101906101fc91906111d3565b6105bc565b005b34801561020f57600080fd5b5061022a60048036038101906102259190611226565b610722565b005b34801561023857600080fd5b50610253600480360381019061024e91906110ca565b610793565b005b34801561026157600080fd5b5061026a6108ee565b005b34801561027857600080fd5b50610281610900565b60405161028e9190611281565b60405180910390f35b3480156102a357600080fd5b506102ac610917565b005b3480156102ba57600080fd5b506102c361092b565b005b3480156102d157600080fd5b506102da6109be565b005b3480156102e857600080fd5b5061030360048036038101906102fe91906110ca565b6109d0565b60405161031091906111b8565b60405180910390f35b34801561032557600080fd5b50610340600480360381019061033b9190611047565b6109f0565b005b34801561034e57600080fd5b50610357610aa3565b60405161036491906112dd565b60405180910390f35b34801561037957600080fd5b50610394600480360381019061038f91906110ca565b610acc565b6040516103a19190611187565b60405180910390f35b3480156103b657600080fd5b506103d160048036038101906103cc91906112f8565b610b74565b005b3480156103df57600080fd5b506103fa60048036038101906103f591906110ca565b610c3a565b60405161040791906111b8565b60405180910390f35b34801561041c57600080fd5b50610437600480360381019061043291906113ac565b610c5a565b005b610441610cdd565b8181600560006003548152602001908152602001600020600001918261046892919061161f565b50600760035490806001815401808255809150506001900390600052602060002001600090919091909150556003547ff284a6bd3f68ad38e64a5e997292a481a2efadafa97d5a88ef6cd369dcc0db5883836040516104c892919061172b565b60405180910390a2600360008154809291906104e39061177e565b91905055505050565b606060066000838152602001908152602001600020600001805461050f90611442565b80601f016020809104026020016040519081016040528092919081815260200182805461053b90611442565b80156105885780601f1061055d57610100808354040283529160200191610588565b820191906000526020600020905b81548152906001019060200180831161056b57829003601f168201915b50505050509050919050565b600047905090565b600060056000838152602001908152602001600020600101549050919050565b600081836105ca91906117c6565b9050803414610605576040517f58f94bb300000000000000000000000000000000000000000000000000000000815260040160405180910390fd5b60006106108561059c565b90508084111561064c576040517f8001fcf200000000000000000000000000000000000000000000000000000000815260040160405180910390fd5b600061065786610c3a565b90508460056000888152602001908152602001600020600101600082825461067f9190611808565b9250508190555081818661069391906117c6565b61069d919061186b565b6005600088815260200190815260200160002060020160008282546106c29190611808565b925050819055503373ffffffffffffffffffffffffffffffffffffffff16867f9b1a42c3e791e1b83e97b329cda354c5dea23c8bf3e854a38ce6cbaf09001aae878760405161071292919061189c565b60405180910390a3505050505050565b61072a610cdd565b8060066000848152602001908152602001600020600101600082825461075091906118c5565b92505081905550817f392125c32afc16623c67d168d4df70d0a6eff645d7cc4bf43e03da6717af8b7c8260405161078791906111b8565b60405180910390a25050565b61079b610cdd565b6107a3610d5b565b6000479050808211156107e2576040517fd7d0543e00000000000000000000000000000000000000000000000000000000815260040160405180910390fd5b81816107ee9190611808565b905060003373ffffffffffffffffffffffffffffffffffffffff16836040516108169061192a565b60006040518083038185875af1925050503d8060008114610853576040519150601f19603f3d011682016040523d82523d6000602084013e610858565b606091505b5050905080610893576040517f70414f4900000000000000000000000000000000000000000000000000000000815260040160405180910390fd5b3373ffffffffffffffffffffffffffffffffffffffff167f372b455b5163a0c4e2a6cf75f425b94ab0df0d2e195b71985c0b39d3303f91b5846040516108d991906111b8565b60405180910390a250506108eb610daa565b50565b6108f6610cdd565b6108fe610db3565b565b6000600260009054906101000a900460ff16905090565b61091f610cdd565b6109296000610e16565b565b610933610cdd565b6000600880549050905060005b818110156109775760006006600083815260200190815260200160002060010181905550808061096f9061177e565b915050610940565b503373ffffffffffffffffffffffffffffffffffffffff167f938173b520d4f6cec0ff68e5207bde29e0b28470eb595cbb43aa3e4bd699e37660405160405180910390a250565b6109c6610cdd565b6109ce610eda565b565b600060066000838152602001908152602001600020600101549050919050565b6109f8610cdd565b81816006600060045481526020019081526020016000206000019182610a1f92919061161f565b50600860045490806001815401808255809150506001900390600052602060002001600090919091909150556004547f22342ee8723a4ca3fcc23e735bacda3c533587947311340bc5bbd8415fc4a00d8383604051610a7f92919061172b565b60405180910390a260046000815480929190610a9a9061177e565b91905055505050565b60008060009054906101000a900473ffffffffffffffffffffffffffffffffffffffff16905090565b6060600560008381526020019081526020016000206000018054610aef90611442565b80601f0160208091040260200160405190810160405280929190818152602001828054610b1b90611442565b8015610b685780601f10610b3d57610100808354040283529160200191610b68565b820191906000526020600020905b815481529060010190602001808311610b4b57829003601f168201915b50505050509050919050565b610b7c610cdd565b83600560008781526020019081526020016000206001016000828254610ba291906118c5565b925050819055508284610bb591906117c6565b600560008781526020019081526020016000206002016000828254610bda91906118c5565b925050819055508181604051610bf192919061196f565b6040518091039020857f29f5176e28baecdc12a1d430d72ce270baf3516b01719235cc5b30f23683e0348686604051610c2b92919061189c565b60405180910390a35050505050565b600060056000838152602001908152602001600020600201549050919050565b610c62610cdd565b600073ffffffffffffffffffffffffffffffffffffffff168173ffffffffffffffffffffffffffffffffffffffff1603610cd1576040517f08c379a0000000000000000000000000000000000000000000000000000000008152600401610cc8906119fa565b60405180910390fd5b610cda81610e16565b50565b610ce5610f3d565b73ffffffffffffffffffffffffffffffffffffffff16610d03610aa3565b73ffffffffffffffffffffffffffffffffffffffff1614610d59576040517f08c379a0000000000000000000000000000000000000000000000000000000008152600401610d5090611a66565b60405180910390fd5b565b600260015403610da0576040517f08c379a0000000000000000000000000000000000000000000000000000000008152600401610d9790611ad2565b60405180910390fd5b6002600181905550565b60018081905550565b610dbb610f45565b6000600260006101000a81548160ff0219169083151502179055507f5db9ee0a495bf2e6ff9c91a7834c1ba4fdd244a5e8aa4e537bd38aeae4b073aa610dff610f3d565b604051610e0c91906112dd565b60405180910390a1565b60008060009054906101000a900473ffffffffffffffffffffffffffffffffffffffff169050816000806101000a81548173ffffffffffffffffffffffffffffffffffffffff021916908373ffffffffffffffffffffffffffffffffffffffff1602179055508173ffffffffffffffffffffffffffffffffffffffff168173ffffffffffffffffffffffffffffffffffffffff167f8be0079c531659141344cd1fd0a4f28419497f9722a3daafe3b4186f6b6457e060405160405180910390a35050565b610ee2610f8e565b6001600260006101000a81548160ff0219169083151502179055507f62e78cea01bee320cd4e420270b5ea74000d11b0c9f74754ebdbfc544b05a258610f26610f3d565b604051610f3391906112dd565b60405180910390a1565b600033905090565b610f4d610900565b610f8c576040517f08c379a0000000000000000000000000000000000000000000000000000000008152600401610f8390611b3e565b60405180910390fd5b565b610f96610900565b15610fd6576040517f08c379a0000000000000000000000000000000000000000000000000000000008152600401610fcd90611baa565b60405180910390fd5b565b600080fd5b600080fd5b600080fd5b600080fd5b600080fd5b60008083601f84011261100757611006610fe2565b5b8235905067ffffffffffffffff81111561102457611023610fe7565b5b6020830191508360018202830111156110405761103f610fec565b5b9250929050565b6000806020838503121561105e5761105d610fd8565b5b600083013567ffffffffffffffff81111561107c5761107b610fdd565b5b61108885828601610ff1565b92509250509250929050565b6000819050919050565b6110a781611094565b81146110b257600080fd5b50565b6000813590506110c48161109e565b92915050565b6000602082840312156110e0576110df610fd8565b5b60006110ee848285016110b5565b91505092915050565b600081519050919050565b600082825260208201905092915050565b60005b83811015611131578082015181840152602081019050611116565b60008484015250505050565b6000601f19601f8301169050919050565b6000611159826110f7565b6111638185611102565b9350611173818560208601611113565b61117c8161113d565b840191505092915050565b600060208201905081810360008301526111a1818461114e565b905092915050565b6111b281611094565b82525050565b60006020820190506111cd60008301846111a9565b92915050565b6000806000606084860312156111ec576111eb610fd8565b5b60006111fa868287016110b5565b935050602061120b868287016110b5565b925050604061121c868287016110b5565b9150509250925092565b6000806040838503121561123d5761123c610fd8565b5b600061124b858286016110b5565b925050602061125c858286016110b5565b9150509250929050565b60008115159050919050565b61127b81611266565b82525050565b60006020820190506112966000830184611272565b92915050565b600073ffffffffffffffffffffffffffffffffffffffff82169050919050565b60006112c78261129c565b9050919050565b6112d7816112bc565b82525050565b60006020820190506112f260008301846112ce565b92915050565b60008060008060006080868803121561131457611313610fd8565b5b6000611322888289016110b5565b9550506020611333888289016110b5565b9450506040611344888289016110b5565b935050606086013567ffffffffffffffff81111561136557611364610fdd565b5b61137188828901610ff1565b92509250509295509295909350565b611389816112bc565b811461139457600080fd5b50565b6000813590506113a681611380565b92915050565b6000602082840312156113c2576113c1610fd8565b5b60006113d084828501611397565b91505092915050565b600082905092915050565b7f4e487b7100000000000000000000000000000000000000000000000000000000600052604160045260246000fd5b7f4e487b7100000000000000000000000000000000000000000000000000000000600052602260045260246000fd5b6000600282049050600182168061145a57607f821691505b60208210810361146d5761146c611413565b5b50919050565b60008190508160005260206000209050919050565b60006020601f8301049050919050565b600082821b905092915050565b6000600883026114d57fffffffffffffffffffffffffffffffffffffffffffffffffffffffffffffffff82611498565b6114df8683611498565b95508019841693508086168417925050509392505050565b6000819050919050565b600061151c61151761151284611094565b6114f7565b611094565b9050919050565b6000819050919050565b61153683611501565b61154a61154282611523565b8484546114a5565b825550505050565b600090565b61155f611552565b61156a81848461152d565b505050565b5b8181101561158e57611583600082611557565b600181019050611570565b5050565b601f8211156115d3576115a481611473565b6115ad84611488565b810160208510156115bc578190505b6115d06115c885611488565b83018261156f565b50505b505050565b600082821c905092915050565b60006115f6600019846008026115d8565b1980831691505092915050565b600061160f83836115e5565b9150826002028217905092915050565b61162983836113d9565b67ffffffffffffffff811115611642576116416113e4565b5b61164c8254611442565b611657828285611592565b6000601f8311600181146116865760008415611674578287013590505b61167e8582611603565b8655506116e6565b601f19841661169486611473565b60005b828110156116bc57848901358255600182019150602085019450602081019050611697565b868310156116d957848901356116d5601f8916826115e5565b8355505b6001600288020188555050505b50505050505050565b82818337600083830152505050565b600061170a8385611102565b93506117178385846116ef565b6117208361113d565b840190509392505050565b600060208201905081810360008301526117468184866116fe565b90509392505050565b7f4e487b7100000000000000000000000000000000000000000000000000000000600052601160045260246000fd5b600061178982611094565b91507fffffffffffffffffffffffffffffffffffffffffffffffffffffffffffffffff82036117bb576117ba61174f565b5b600182019050919050565b60006117d182611094565b91506117dc83611094565b92508282026117ea81611094565b915082820484148315176118015761180061174f565b5b5092915050565b600061181382611094565b915061181e83611094565b92508282039050818111156118365761183561174f565b5b92915050565b7f4e487b7100000000000000000000000000000000000000000000000000000000600052601260045260246000fd5b600061187682611094565b915061188183611094565b9250826118915761189061183c565b5b828204905092915050565b60006040820190506118b160008301856111a9565b6118be60208301846111a9565b9392505050565b60006118d082611094565b91506118db83611094565b92508282019050808211156118f3576118f261174f565b5b92915050565b600081905092915050565b50565b60006119146000836118f9565b915061191f82611904565b600082019050919050565b600061193582611907565b9150819050919050565b600081905092915050565b6000611956838561193f565b93506119638385846116ef565b82840190509392505050565b600061197c82848661194a565b91508190509392505050565b7f4f776e61626c653a206e6577206f776e657220697320746865207a65726f206160008201527f6464726573730000000000000000000000000000000000000000000000000000602082015250565b60006119e4602683611102565b91506119ef82611988565b604082019050919050565b60006020820190508181036000830152611a13816119d7565b9050919050565b7f4f776e61626c653a2063616c6c6572206973206e6f7420746865206f776e6572600082015250565b6000611a50602083611102565b9150611a5b82611a1a565b602082019050919050565b60006020820190508181036000830152611a7f81611a43565b9050919050565b7f5265656e7472616e637947756172643a207265656e7472616e742063616c6c00600082015250565b6000611abc601f83611102565b9150611ac782611a86565b602082019050919050565b60006020820190508181036000830152611aeb81611aaf565b9050919050565b7f5061757361626c653a206e6f7420706175736564000000000000000000000000600082015250565b6000611b28601483611102565b9150611b3382611af2565b602082019050919050565b60006020820190508181036000830152611b5781611b1b565b9050919050565b7f5061757361626c653a2070617573656400000000000000000000000000000000600082015250565b6000611b94601083611102565b9150611b9f82611b5e565b602082019050919050565b60006020820190508181036000830152611bc381611b87565b905091905056fea26469706673582212209b77544c43efbd61a8a4712249e6f0d2fe03b3b8968414babffc26abc17c76b964736f6c63430008150033",
  "linkReferences": {},
  "deployedLinkReferences": {}
}